:020000022000DC
:10600000000001203D6202009562020097620200DA
:10601000996202009B6202009D6202000000000083
:106020000000000000000000000000009F6202006D
:10603000A162020000000000A3620200A56202004B
:10604000C5820200AB62020045870200AF62020017
:10605000B1620200B3620200C9850200B7620200A9
:10606000B9620200BB620200BD620200BF620200B0
:10607000C1620200C3620200C5620200C762020080
:10608000C9620200CD700200CD620200CF62020040
:1060900069710200D3620200C1A60200D762020049
:1060A000D9620200DB620200DD620200DF620200F0
:1060B000E1620200E3620200A7620200A76202003E
:1060C000E5620200E7620200E9620200EB620200A0
:0C60D000ED620200EF620200F1620200CB
:1060DC00364937480A1A02D0072291438D46354972
:1060EC0035480A1A06D00722914381F30988022207
:1060FC0082F3148831483249324A00F045F832486C
:10610C003249334A00F040F832483349334A00F000
:10611C003BF833483349344A00F036F833483449B5
:10612C00344A00F031F834483449354A00F02CF840
:10613C0034483549354A00F027F8354835490022AE
:10614C0000F02DF834483549002200F028F8344886
:10615C003449091A082903DB00220260043001606B
:10616C00314A90471F482049884205D002680430C4
:10617C0003B4904703BCF7E700208646EC460020AA
:10618C0000212A4A9047FEE7884207D0521A05D0D0
:10619C00037801300B700131013AF9D17047884214
:1061AC0002D002700130FAE77047000000000120B5
:1061BC0000E00020000001200000012004C40200C7
:1061CC0054660020B0660020F4620200F462020003
:1061DC00D0B3020004C402005466002054660020B0
:1061EC00ECB40200ECB40200ECB40200ECB402001B
:1061FC00ECB40200ECB40200ECB40200ECB402000B
:10620C0004C4020060C40200B0660020B066002026
:10621C00B06600208C7400208C7400208C740020DC
:10622C008C7400208C940020616202002193020087
:10623C000F484FF00701884385460E4880470E48AB
:10624C00016841F470010160BFF34F8FBFF36F8F92
:10625C00FFF73EBF09480A490A4A884207D0521A3A
:10626C0005D0037801300B700131013AF9D1704738
:10627C0000000120717D020088ED00E0B8B402003E
:10628C002066002054660020FEE7FEE7FEE7FEE7EE
:10629C00FEE7FEE7FEE7FEE7FEE7FEE7FEE7FEE7CA
:1062AC00FEE7FEE7FEE7FEE7FEE7FEE7FEE7FEE7BA
:1062BC00FEE7FEE7FEE7FEE7FEE7FEE7FEE7FEE7AA
:1062CC00FEE7FEE7FEE7FEE7FEE7FEE7FEE7FEE79A
:1062DC00FEE7FEE7FEE7FEE7FEE7FEE7FEE7FEE78A
:0862EC00FEE7FEE7FEE700BF3C
:1062F400F0B595B01C46164608460D4601F01AFC4A
:106304001A9B0D93CDE9086400242346082205A9AD
:1063140028460A948DF82C400C9401F047FC079B06
:106324000293BDF81830ADF80C30BDF81A30ADF852
:106334000E309DF814308DF8114003F00302012A49
:106344001DD1BDF81440059EC3F3C203C4F38314E6
:106354008DF81030A20008230EA9284601F026FC6F
:10636400C6F3952608AB0093224602AB0EA930462D
:1063740000F0EAFB284601F0E1FB15B0F0BD022A6B
:10638400F8D1BDF81640C3F3C203A4098DF8103048
:106394000827082C264628BF08263B4632460EA965
:1063A400284601F003FCA41B08AB02AA31460EA840
:1063B400374400F02DFC002CEBD1DBE7014B01222C
:1063C4001A707047F16600207047000070B50E4DDA
:1063D40006460FCD88B06C460FC495E80F0084E8DC
:1063E4000F0008A9002E4FF00603084A41F8203D8B
:1063F40008BF0022064801F0EDFE08B100F0B8FD28
:10640400044B1E7008B070BDECB40200C1630200FE
:1064140054660020B066002007B5044B0093044A7C
:106424004023FFF765FF03B05DF804FB3964020005
:10643400B166002038B50D4B0D4D002018700D4885
:1064440004782D5DD2B21C4665B1043002F0B0FD73
:1064540008B100F08DFD084B1A7812B12378002B97
:10646400FBD038BD0C3002F09DFBF1E7F166002053
:10647400806D002054660020B066002008B50848EE
:10648400084A0378D35C3BB1043002F02DFD0020B0
:10649400BDE80840FFF79ABF0C3002F01FFBF6E797
:1064A40054660020806D00200120FFF78FBF00009C
:1064B40010B5054CFFF7F8FF0421204600F0B4FAAC
:1064C4000123637210BD00BF68660020037813F0D7
:1064D400030F03F0040202D012B910467047B2B1A0
:1064E40003F00303012B03D0022B09D001207047D2
:1064F4000A6800880232C0F3831002440A60F5E798
:106504000B684288023303EB92130B60EEE70B68CF
:106514004288013303EB92130288F4E72DE9F04F2C
:1065240089B00546861C08A8484C019200230F46F2
:1065340000F8113D01F002F823683B60D4E901231F
:106544001344226801339B1A04F21C4704F5836A3E
:1065540004F21448B3421AD3019A0023002A6DD0DE
:10656400012262F3010343F0040365F389132168F4
:10657400A2689DF80F000A4003320E4444F822300A
:10658400266000F0FFFF012009B0BDE8F08F012173
:10659400384601F054F8504601F067F8404601F0DF
:1065A40064F80DF120096068D4F808B049F8100DBA
:1065B40000EA0B00033004EB80004946FFF786FF36
:1065C400049BB0B90BEA030204EB8202D168059183
:1065D4009A1C013303EA0B0B04EB8B0C01F003034D
:1065E400012B0492DCF80CB020D0022B04D083469B
:1065F4000BE00BEA0300DDE7BDF816309B0903331B
:106604004FEA1B4B02EB93030493404601F030F82E
:1066140008B1049B63605946384601F010F8D4E988
:1066240001231344226801339B1A93E7BDF8143005
:10663400C3F383134FEA1B4B1344E5E7022262F3CF
:10664400010343F0040365F39F5390E7C4670020FC
:1066540008B50E4B0E48FF229A600022C3F8182496
:10666400C3E90022C3F8142483F8202401F01BFAA0
:1066740038B9084A084B09499B1ADB0802469A4272
:1066840000D108BD21F822200132F8E7C4670020B8
:1066940088B4020020B4020088B4020020660020FE
:1066A40030B50B4C79B10B4A0B49121BD2080023AD
:1066B4009A4201D1002030BD01EB83056D888542EB
:1066C40002D00133F4E7034654F83300F3E700BF84
:1066D40020B4020088B4020020660020094B01396E
:1066E40003EBC000032909D8DFE801F00A0204061D
:1066F4000420704700797047407970470020704744
:106704000220704720B40200034BD3E90030C31ABF
:1067140058425841704700BFC46700202DE9F04338
:1067240087B0FFF7F1FF0746002840F0F5807B4D66
:10673400C5F81804BFF34F8F6868AC680DF11808EA
:1067440048F8100D2040033005EB80004146FFF768
:10675400BDFE029B064600285FD104EA0302991C91
:10676400013305EB8202234005EB8303D268DB6827
:10677400049302F00303022B0392029162D1BDF849
:106784000E3067484FEA9318B8F1500FC14628BF3E
:106794004FF0500969F38F1309F10801ADF80E3079
:1067A40001F099F90746002800F0A48001F0C2F92D
:1067B400334603A90822384601F0CFF9029924EAA6
:1067C40001060136B600B14535D95FFA89F97EB3C1
:1067D400F6B2A9EB0609214003315FFA89F4B14608
:1067E400504E05EB810108234A46384601F0B5F9BD
:1067F40036B109F1080322463146384601F0ADF9B5
:10680400029B08F1030803EB98030293D5F81834AC
:10681400002B4AD1D5F8104458E02A689A4204D88B
:106824006A60384607B0BDE8F08304EA03008AE7EB
:106834003C493446D7E72140033108234A4605EB57
:106844008101DAE7012B55D1BDF80C303448C3F38C
:106854008311062928BF062161F3891302318900B7
:10686400ADF80C3001F037F90746002842D001F0AA
:1068740061F93346082203A9384601F06EF9BDF8E0
:106884000C20C2F38312B31C96424FEA8303BDD299
:1068940002994A1C21400331029205EB8101042232
:1068A400384601F05AF90136E9E7384601F046F96D
:1068B400FFF72AFF80F00100C7B2B2E7637A23B181
:1068C400236839461B68204698476468002CF5D134
:1068D400384601F033F906A800F8114D00F02EFEF9
:1068E400D5F818340BB9029B6B609DF8070000F0D3
:1068F40049FEDDE7D5F8104444B90B4B0B49188821
:10690400000440F0020000F06BF8D1E72368204651
:106914009B6898476468EFE7002782E7C467002014
:1069240088B40200D06700203466002018B5020045
:106934002DE9F74F284C80460F46924601A90122C3
:1069440018469B46D4F80890FFF7E8FD88B3019DEC
:106954000026A91C5E4506EB010234D100211F4824
:1069640000F042FE80F310006A1C02EA090204EB04
:106974008202000405EA0903033340EA1840D060A8
:1069840014F8232068F3C50204F8232034F82320E4
:1069940066F3891224F8232054F82320012167F395
:1069A4009F2244F8232061F301026FF3820204F86A
:1069B400232094F820341BB1FFF7B0FE0028FBD14C
:1069C40003B0BDE8F08F09EA020204EB82025AF830
:1069D4002630D3600136BDE7C4670020E06B002099
:1069E40000231A46FFF7A4BF13B502AC012344F8F1
:1069F400042D2246FFF79CFF02B010BD07B5CDE978
:106A0400002302236A46FFF793FF03B05DF804FBFB
:106A14001FB5CDE90123069B039301AA0323FFF7C6
:106A240087FF05B05DF804FB0F4A30B5D2F8104477
:106A34000023214641B90372D2F810444CB9C2F87C
:106A440010044160184630BD0D7A9D4205D0496856
:106A5400F0E7626842606060F4E701330A2BE8D132
:106A64004FF0FF33EEE700BFC4670020084A38B593
:106A74000123D2F8104482F820341D4604B938BDED
:106A84002368657220465B6898476468F6E700BF30
:106A9400C4670020037A052B10B50C460FD0437A47
:106AA40023B1084A0849204600F043FE074920461E
:106AB40000F03FFE2046BDE8104000F02FBE002A43
:106AC400F8D0F3E773B5020078B5020098B5020078
:106AD400C38873B504460D4633B1144A0092144971
:106AE400144A284600F025FE217A05291CD0637A31
:106AF4004BB1A088FFF7F2FD0F4B104953F820204B
:106B0400284600F016FE227A0D4BA08853F8226026
:106B14000021FFF7C5FD0B4903463246284602B063
:106B2400BDE8704000F005BE02B070BD73B5020050
:106B340083B502007BB5020040B5020078B50200BF
:106B4400A8B502009BB502002DE9F04385B01F46AD
:106B54000C9D002306460C46904695F80C902B732A
:106B640029463846FFF7B4FFB8F1060F09D8DFE825
:106B740008F00412181F283340003146284600F05C
:106B8400D8FD002229463846FFF784FF85F80C908B
:106B940005B0BDE8F08322683146284600F0C9FDFF
:106BA400EFE7D4E900233146284600F0C2FDE8E7C8
:106BB400A36800933146D4E90023284600F0B9FDC8
:106BC400DFE7E3680193A36800933146D4E9002327
:106BD400284600F0AEFDD4E723690293E3680193ED
:106BE400A36800933146D4E90023284600F0A1FDB0
:106BF400C7E76369039323690293E3680193A36876
:106C040000933146D4E90023284600F092FDB8E70A
:106C140008292DE9F84F80460E4617461C4636D8FB
:106C2400002593F80C901D7319461046FFF750FF8A
:106C3400DFF87CA0DFF87CB0AE422AD918F8052032
:106C44005946204600F075FD0135082DF4D116494A
:106C5400DFF864B0204600F06CFD0025AE421DD97B
:106C640018F805A0504603F0FBFE002814BF524656
:106C74002E225946204600F05CFD0135082DEDD149
:106C8400012221463846FFF705FF84F80C90BDE841
:106C9400F88F5146204600F04CFDD5E703492046C5
:106CA40000F047FDE9E700BF6EB502006CB50200D5
:106CB4006AB5020064B5020070B502002DE9F04F18
:106CC4003B4F89B000263B4B1B78F5B2AB4202D850
:106CD40009B0BDE8F08F384B196811F8350001246C
:106CE400A0F12002C0F1200304FA02F924FA03F30C
:106CF40049EA0309D7E9002304FA00F8CDE904239B
:106D040002EA080203EA0903134301EBC50B4CD062
:106D1400DDE9042322EA080223EA0903C7E9002380
:106D2400079101F045FC0799844611F83500A0F15C
:106D34002002C0F1200324FA03F304FA02F21A43F6
:106D440004FA00F300931D4B0192DDE90045D3E9F9
:106D5400002314401D4022462B465FFA8CF4002584
:106D6400CDE90445049CA0F12005AC400394049CA7
:106D7400C0F1200124FA01F1039C0C43049903940B
:106D840081400291DDE90245AB4208BFA2420CD129
:106D94009BF801104B1E59425941A1EB0C02DBF840
:106DA40004305142514103B1984701368BE700BF8B
:106DB400186C0020E86B0020206C0020106C002070
:106DC4002DE9F84F0646244800F0A8FB002841D1DD
:106DD4000123A6F12001C6F1200203FA01FB23FAE4
:106DE40002F203FA06FA1D4BD3E900014BEA020B47
:106DF40000EA0A0801EA0B0958EA09021F4623D1EE
:106E0400304601F0D5FB164BB8B1D3E9000140EA96
:106E14000A0441EA0B05C3E90045D7E900234BEA1C
:106E24000305104B0C4819684AEA0204C7E90045F7
:106E34000022BDE8F84F00F02DBBD3E9000120EAA1
:106E44000A0421EA0B05E6E720EA0A0421EA0B0515
:106E5400C3E90045BDE8F88FF06B0020186C0020F2
:106E6400106C0020EC6B0020042A2DE9F341054648
:106E74000C4616463AD901F0B1FAD8B11C4B1D495B
:106E84001D601D4BDFF884801C701C4B00221E60AB
:106E94000023C1E900231A49C1E90023013CE4B2FB
:106EA40000260327FF2C0CD1164A1748002100F0B6
:106EB400DFFA03E001F05AFA0028DFD002B0BDE89F
:106EC400F08123B205EBC30201A992788DF8052065
:106ED40015F833008DF8066042468DF8047001F011
:106EE40087FA013CE4B20028DCD0E7E70720E5E7B5
:106EF400206C0020106C0020E86B0020EC6B00205C
:106F0400186C0020C16C020008B60200C56D0200B6
:106F140070B5084D084E00242B789C4201D3002004
:106F240070BD3368012113F8340001F0D9FA01343B
:106F3400F2E700BFE86B0020206C002070B5094D1B
:106F4400094E00242B789C4204D30848BDE87040C5
:106F540000F0E4BA336813F8340001F007FB01349D
:106F6400F0E700BFE86B0020206C0020F06B0020ED
:106F74001FB50021039001AA44F20100CDE90111DB
:106F840000F004F805B05DF804FB000010B572B61B
:106F9400FFF76CFDFFF7C2FB0028FBD1104C114931
:106FA4002088000440F00100FFF71AFD0E4B1B6817
:106FB400DB0700D500BE20880C49000440F0020025
:106FC400FFF70EFDBFF34F8F09490A4BCA6802F45D
:106FD400E0621343CB60BFF34F8F00BFFDE700BFF8
:106FE400346600200CB60200F0ED00E018B6020092
:106FF40000ED00E00400FA05094A53789178013362
:10700400DBB2994208BF0023117899421FBF037075
:107014005078182303FB002014BF0430002070476D
:10702400246C002073B5054602A8002400F8014D25
:107034000E4600F083FA0DF10600FFF7DDFF90B174
:1070440006700A4B9DF8062045605A709DF80700AB
:1070540000F098FA24B9064B4FF48012C3F80021CB
:10706400204602B070BD0424F0E700BF246C002069
:1070740000E100E0024B4FF43C6043F00103184789
:1070840030B6020038B50C4B0C4C4FF40032C3F848
:10709400802001254FF48033C4F84833C4F8083302
:1070A4006560FFF7E7FF064BA56000241C60FFF74F
:1070B400E1FF044B1C7038BD00E100E0001001400A
:1070C400406D0020316D0020F8B51F4B1F491B682F
:1070D4000025C1F84051C1F84451C1F84851C1F8E4
:1070E4004C51C1F80051C1F804514BB3D1F80445D7
:1070F40017490968641A24F07F442F461A68A2428B
:1071040009D8A41A15441A7CDE691AB11F74D3E98C
:1071140005209047AEB90F4B0F4A197813788B426C
:1071240005D10133DBB2022B08BF002313701278A0
:107134000A4B43F822500A4B4FF48012C3F8002143
:10714400F8BD3346DAE700BF446D0020001001406B
:10715400406D00203C6D00203D6D0020346D00200A
:1071640000E100E02DE9F74F9E4A9F491378097822
:107174009E4D99423CD00133DBB2022B08BF002361
:1071840013709B4912789B4B0F6853F822003B18ED
:1071940023F07F4300220B602B6816461446944666
:1071A40013B942B12B6006E0196881420ED902B1CD
:1071B4002B60091A19604FF001082B68DFF83CA214
:1071C40000930027BEB9DFF83CB260E0401A0C44DB
:1071D400D968C3F800C0D3F81CE031B13A1922F0E1
:1071E4007F42C3E90121DE611E4601227346D7E7CF
:1071F4000026B046E1E73446F6697D4A63681268C2
:10720400DFF804C2A068991A21F07F41614500F2B9
:10721400A58001442160012222742A680023C4E964
:107224000133E361002A40F0A2802C60CAE75A1CB3
:107234009BF80210D2B291428BF8002004BF0022C6
:107244008BF80020182202FB03B32A6819799C6882
:10725400022974D003297ED0012918D1217CB1B927
:10726400DA6862601A69A2605A699B69A361624B19
:10727400E2601B78002BC0D06160BEE79C4200F046
:1072840093809946DB69002BF8D1002323749BF883
:1072940000309BF801209A42C9D12B682FB9009A7B
:1072A400934202D1B8F1000F43D0002B79D0D3F828
:1072B40000A0524D4E4BD5F804751C68DFF84C8184
:1072C4003E1B98F8003026F07F4603369BB94FF4F6
:1072D4008033C5F84433C5F80433494B4FF40032C6
:1072E4004FF00109C3F880211A60C5F80090FFF738
:1072F400C1FE88F80090B2452CBF5444A41924F070
:107304007F44C5F84045D5F80435DB1B23F07F43A3
:10731400E41B033324F07F44A3420AD9D5F804358F
:10732400C5F84035FFF7A6FE354B4FF40032C3F8DD
:107334000021314B00221A7003B0BDE8F08F1346D0
:107344009146A0E71174D2690123002AFAD1002BD7
:107354009DD02A609BE700231946F6E7D31A23F051
:107364007F43834234BFC31A0023236053E7216859
:107374001368994213D8591A1160E26155E7091A42
:10738400D8691A4638B1034618688842F7D3401AB8
:107394001860184613462160E061DC6112E7134669
:1073A400F2E7FFF76FFEC4E74C450DD1D3692B60BC
:1073B40053B90F4801920121CAF8081003600E4B1B
:1073C4001970FFF757FE019AE1692368C9F81C1088
:1073D40011B1086803440B602B689A4218BF012757
:1073E40053E700BF3C6D00203D6D0020446D00203C
:1073F400406D0020346D0020306D002000100140ED
:1074040000E100E0246C0020FEFF7F00316D0020CD
:1074140008B5FFF737FE104B00200B2218809A7036
:107424000E4B18600E4B18700E4B18700E4B4FF429
:107434008012E021C3F8802183F814131A6002F14A
:107444008042A2F56F22C2F8080583F81113074B96
:10745400D2F804251A6008BD246C0020446D002075
:107464003C6D00203D6D002000E100E0406D0020F7
:10747400074B9B784BB132B128B10368187C20B913
:1074840059745A617047072070470820704700BF3D
:10749400246C00202DE9F7431D4FBB7805460E46AA
:1074A40090469BB390B304292ED9436973B3437CAC
:1074B40002A80024012B00F8014D0CBF8946A14607
:1074C40000F03CF80DF10600FFF796FDD0B1012362
:1074D4000370104B4560D3F80435C0E90498C0E943
:1074E40002369DF806307B709DF8070000F04AF8DC
:1074F40024B9094B4FF48012C3F80021204603B08D
:10750400BDE8F0830424EFE70724F7E70824F5E750
:10751400246C00200010014000E100E0064A92784B
:107524003AB130B1426922B1002202740221FFF75C
:1075340079BD0820704700BF246C002070B5EFF3BC
:10754400108672B60C4A946801239CB993600B4B65
:107554000B4DD3F8801029401160C3F88050D3F844
:10756400841051604FF0FF32C3F88420047006B9D0
:1075740062B670BD0370FAE7486D002000E100E0D8
:10758400FC06FFBD084B9A6810B55AB150B9EFF329
:10759400108172B6054A1C6814605C685460986077
:1075A40001B962B610BD00BF486D002000E100E0E3
:1075B40001F01F024B090121914000EB830000F010
:1075C4001DB801F01F0301229A404B0900EB830010
:1075D400D14300F029B84B0901F01F0150F82300F2
:1075E400C84000F00100704750E8002F0B4640E807
:1075F400003C9CF0000FF7D11046704750E8003F64
:1076040043EA010240E8002C9CF0000FF6D110463A
:10761400704750E8002F02EA010340E8003C9CF068
:10762400000FF6D11046704750E8003F03EA01020C
:1076340040E8002C9CF0000FF6D11046704750E84B
:10764400003F03EB010240E8002C9CF0000FF6D150
:107654001046704750E8003FA3EB010240E8002CBD
:107664009CF0000FF6D1104670470121FFF7C6BF0A
:107674000021FFF7CEBF10B590B1D0E90123016816
:107684009B1ADBB20A60013BDBB2FF2B026802D11A
:107694000020107110BD11684C1C14600B70F2E7CF
:1076A4000E20F7E737B5054602A8002400F8014D7F
:1076B400FFF744FF2A686B68116899420ED9481E87
:1076C400106011F8014CEB68A98A01FB0434AB6823
:1076D40011791B1ADBB2994238BF13719DF8070068
:1076E400FFF750FF204603B030BD37B5054602A86A
:1076F400002300F8013D0C46FFF720FF2A681368B9
:10770400591C1160E968641AA98AB4FBF1F41C706D
:107714009DF80700FFF736FF03B030BD826810B54F
:1077240004462AB143690168006998470023A360AD
:1077340010BD0EB403B5039929B102AA04AB42F8F3
:10774400043D00F06BF802B05DF804EB03B0704741
:10775400826830B40468551C8560A154D0E90132B4
:107764009A4202D330BCFFF7D9BF30BC7047000047
:107774002DE9F84F9946DDE90A43174682468846C3
:107784000A460126BA420FD24E4538BF4E4613F080
:10779400010B01D164B900240125B9F1010F1AD9F3
:1077A40009F1FF397D43F8E7B2FBF7F20136E9E767
:1077B4009B070ED5B9F1000F0CBF30252025A6423A
:1077C400EAD2013C29465046FFF7C2FF002CF6D10D
:1077D400E1E72025F3E7B8FBF5F39F42E2D9DFF8B0
:1077E4003890B8FBF5F3504619F8031005FB1388DD
:1077F400FFF7AEFFB5FBF7F5002DF2D1BBF1000F9B
:1078040002D00CB1A64201D3BDE8F88F2021504626
:10781400013CFFF79DFFF4E736B602002DE9F74F70
:10782400054690460E46002900F03A8116F8011BE1
:10783400002958D0252940F0D180002702E047F0E4
:1078440001071646324612F8013B2D2BF7D0302B98
:1078540004D02B2B05D147F00407F2E747F00207C9
:10786400EFE700242A2B06F101021BD1D8F80030DF
:10787400191D1B68C8F800101C44164633782E2BBB
:107884001CD101364FF0000A314611F8012BA2F148
:107894003000092814D80A2303FB0A23A3F1300A71
:1078A4000E46F1E712F8013CA3F130010929E5D8AD
:1078B4000A2101FB0434303C1646D3E74FF0000A9A
:1078C400324612F8011B01F0FB0068281646F8D076
:1078D400692916D054D8582970D00ED825297DD0BE
:1078E4003378002BA2D12B7B002B00F0D9802846C3
:1078F40003B0BDE8F04FFFF711BF632968D06429D6
:10790400EED1D8F80020D2F80090111D89EAE9726E
:10791400C8F80010A2EBE9724FF0010B092A61DCF0
:10792400D34538BFD3462CB1B9F1000F01DB790739
:1079340000D5013CBA0702D5BAF1000F04D0FB0709
:1079440002D4002C54D10024B9F1000F58DAC9F143
:1079540000092D212846FFF7FBFE07F00302022A47
:1079640005D1BAF1000F02D1002C4DD10024CDE98C
:10797400004753460A2249462846FFF7F9FEAFE777
:10798400732954D016D87029AAD1D8F800301A1DFA
:10799400C8F80020302128461C68FFF7D9FE78215A
:1079A4002846FFF7D5FE00220823CDE90032214600
:1079B4001022E1E775292FD0782991D1D8F8001049
:1079C4000A1DC8F80020CDE90047534610222CE0D8
:1079D400D8F800301A1D1978C8F800202846FFF797
:1079E400B7FE7DE70A230BF1010B92FBF3F295E757
:1079F400A345A9D220212846013CFFF7A9FEA0E710
:107A04007807AAD52B21A5E7A345B0D23021284673
:107A1400013CFFF79DFEA7E7D8F80010CDE9004729
:107A24000A1DC8F8002053460A220968A4E7D8F8BA
:107A340000301A1DC8F80020F907D3F8009012D5B9
:107A44004F46A7EB090B17F8011B41B9A345BFF437
:107A540047AF20212846013CFFF77AFEF6E7284687
:107A6400FFF776FEEDE7B9F1000F17D0484603F0B3
:107A7400E3F80746BC4200D954B909F1FF3919F8B3
:107A8400011F00293FF42CAF2846FFF761FEF6E7FB
:107A940020212846013CFFF75BFEEBE74F46E9E770
:107AA40003B0BDE8F08FFFF7E6BDF8B546790146AF
:107AB400721E0546002393422D6803D30024A64278
:107AC40002D8F8BD0133F6E70F682846FFF70DFE2C
:107AD40001343946F3E72DE9F843868ACD1C07467D
:107AE400FFF7E0FD043E35440446B5FBF6F5F0B17E
:107AF4004FF48073EDB28380C680013D07608146F8
:107B04004FF00008A84512D23846FFF7CBFD0646D1
:107B140048B163790133637108F10108C9F80000C1
:107B240007608146EEE72046FFF7BFFF3446204654
:107B3400BDE8F88301210430FFF781BD10B50121B0
:107B440004460430FFF786FD10F0FF0F04D12046F1
:107B5400BDE81040FFF7A9BF10BD2DE9F843C78861
:107B64000546181D8846B0FBF7F4164607FB1400BB
:107B74003CB9A7EB0009B14528BFB14626B9BDE819
:107B8400F8832D68013CF3E70430A6EB09064A4666
:107B940008EB0401284402F0D1FFB7424C442D689D
:107BA400B9464FF0000028BFB146E7E72DE9F84396
:107BB400C7888846191D0546B1FBF7F4164607FB2E
:107BC40014113CB9A7EB0109B14528BFB14626B948
:107BD400BDE8F8832D68013CF3E704312944A6EBA2
:107BE40009064A4608EB040002F0A8FFB7424C44D9
:107BF4002D68B9464FF0000128BFB146E7E741DFE1
:107C040070470000064B10B500241C70054B1C6027
:107C1400BFF35F8F0449054800F030F8204610BDDB
:107C24005C6D0020606D002048B60200546D002099
:107C340007B502A8002300F8013DFFF77FFCF1EE31
:107C4400103A23F09F03E1EE103ABFF35F8F0A4B23
:107C54004022C3F884219DF80700FFF793FC02F04B
:107C640013FD20B1FFF7CBFF03B05DF804FB20BF89
:107C740040BF20BFF8E700BF00E100E00B684A689E
:107C84004360934208BF0023016008BF436070470C
:107C9400436843B10268916852680B44934243605D
:107CA40004BF0023436070470D4930B5A1F59472B9
:107CB4000225914201D800200EE08B1ADB1093FBC1
:107CC400F5F302EBC30452F83330834205D802D2F1
:107CD40004F10802EDE7606830BD2146E9E700BF22
:107CE40098B7020008B5FFF7DFFF024B002808BF72
:107CF400184608BD5DB602000C4B1B78062B10D14C
:107D04000B4B1B681A070CD10A4B186800F0F003E0
:107D1400302B08D000F0E000A0F140035842584155
:107D24007047002070470120704700BFE00F00F04B
:107D3400E40F00F0E80F00F0094B1B78062B0CD180
:107D4400084B1B681A0708D1074B186800F0F000AD
:107D5400A0F130035842584170470020704700BFDB
:107D6400E00F00F0E40F00F0E80F00F008B5FFF7B3
:107D7400C3FF28B17D4B7E4A1B68C3F30423136001
:107D8400FFF7DAFF10B17B4B7B4A1A60FFF7B4FFB1
:107D940028B17A4B7A4A1B68C3F342331360FFF766
:107DA400CBFF20B1774AD36823F08073D360FFF709
:107DB400A3FF40B14FF080430022C3F80C21C3F865
:107DC4001021C3F83825FFF7B7FF10B16E4B03221B
:107DD4001A60FFF7B1FF40B16C4B05221A60012213
:107DE4009A6700229A603F225A60694B1B78062BDF
:107DF40050D1684B1B6819074CD1674B1B6803F0C3
:107E0400F003502B46D14FF08052644BD2F8041447
:107E1400C3F82015D2F80814C3F82415D2F80C14AA
:107E2400C3F82815D2F81014C3F82C15D2F814147A
:107E3400C3F83015D2F81814C3F83415D2F81C144A
:107E4400C3F84015D2F82014C3F84415D2F824140A
:107E5400C3F84815D2F82814C3F84C15D2F82C14DA
:107E6400C3F85015D2F83014C3F85415D2F83414AA
:107E7400C3F86015D2F83814C3F86415D2F83C146A
:107E8400C3F86815D2F84014C3F86C15D2F844242A
:107E9400C3F87025FFF730FF28B1414B414A1B68F6
:107EA40003F04F031360FFF727FF48B14FF08043FF
:107EB400D3F80024D20744BF6FF00102C3F80024B2
:107EC400394B1B68062B08D1384B1B68062B01BFA6
:107ED400374A136843F480631360364AD2F8883013
:107EE40043F47003C2F88830BFF34F8FBFF36F8F32
:107EF4004FF01023D3F80022002A03DBD3F8043216
:107F0400002B2FDA2C4B0122C3F80425D3F80024CC
:107F1400002AFBD04FF010221521C2F80012D3F82A
:107F24000024002AFBD04FF010231522C3F80422AA
:107F3400214B1A46D3F800140029FBD00021C3F8C2
:107F44000415D2F80034002BFBD0BFF34F8F19492E
:107F54001A4BCA6802F4E0621343CB60BFF34F8F3D
:107F640000BFFDE7164B174A1A6008BD2403001032
:107F74004035014074C007400DF0ADBA4402001012
:107F84003C050040F0ED00E0A00500401056004024
:107F9400E00F00F0E40F00F0E80F00F000C0004034
:107FA40058020010E40E00403001001034010010AB
:107FB4003C17004000ED00E000E001400400FA0539
:107FC400746600200090D003044B1A5C0123934094
:107FD4004FF0A042C2F80C35704700BF52BB0200FC
:107FE400044B1A5C012393404FF0A042C2F80835B9
:107FF400704700BF52BB020008B50020FFF7F0FF36
:108004000120FFF7EDFF0220FFF7EAFF0320BDE8A0
:108014000840FFF7E5BFC20708B501460CD54FF08D
:10802400A0430322C3F84427C3F84827C3F84C27C6
:10803400C3F85027FFF7E0FF8B070AD54FF0A043A2
:108044000C22C3F83427C3F83827C3F83C27C3F8F5
:10805400402708BD38B5084C04F10803054600283C
:1080640018BF1C4623682BB11A6822605B68284637
:108074009847F7E738BD00BF6C6D002020B9054B69
:1080840001225A70FFF7E6BF012802D1014A90701D
:10809400F8E77047646D002020B9034B01225A7041
:1080A400FFF7D8BF704700BF646D002038B50B4C94
:1080B400237883B90A486360A3602361E36000F016
:1080C400D1F8054602F0E0FA08B900F0D9F8012326
:1080D4002370284638BD8525FBE700BF646D00206A
:1080E4008180020037B502A80023094C00F8013D45
:1080F400FFF724FAE368013BE360E56815B900F093
:10810400D3F8A5709DF80700FFF73CFA03B030BD23
:10811400646D0020012813B509D003D303281BD0B4
:1081240002B010BD0F4B0122C3F88020F8E702A86B
:1081340000230D4C00F8013DFFF700FA23780BB93A
:10814400FFF7B4FFE3689DF807000133E360012300
:10815400A370FFF717FAE3E700F092F8FFF7C2FF06
:10816400DEE700BF00E100E0646D00201FB5037886
:108174008DF8003043680193037A8DF80830C368A2
:108184000393054A054B684653F8213052F82110F1
:10819400984705B05DF804FB786D00207C6D0020E5
:1081A4001FB503788DF800304368019383688DF818
:1081B4000830C3680393054A054B684653F82130D9
:1081C40052F82110984705B05DF804FB786D002043
:1081D4007C6D0020F0B5194B067891F81DE043F84A
:1081E4002620174B94460A6943F82620154B03F8BA
:1081F40006E00C4607460FCC89B06D460FC594E8DF
:108204000F0085E80F000496BEF1000F0AD0BCF100
:10821400000F0D4A694608BF0022381D00F09CFD7E
:1082240009B0F0BDBCF1000F084A694608BF00223E
:1082340007F10C0000F092FBF2E700BF7C6D002018
:10824400786D0020806D002071810200A5810200FC
:1082540000F18040002382B0036003680193019B16
:1082640002B07047054A13792BB9012110601171CE
:108274005371184670478520704700BF846D0020F5
:10828400084B1A68D20706D4E02283F8002301229F
:10829400C3F880211A604FF080430122C3F81825E7
:1082A400704700BF00E100E0044B01221A604FF068
:1082B4008042D2F81834DB03FBD470470C00004032
:1082C400124B1B6810B573B14FF48070FFF7C0FFF9
:1082D4004FF080430122C3F808230D4B587910B99D
:1082E4005A711B6898470B4B1B6873B14FF482702B
:1082F400FFF7AEFF4FF080430222C3F80823044B7C
:1083040001201B68BDE81040184710BD0001004063
:10831400846D00200401004000F1804000F5C0405D
:10832400002382B0036003680193019B02B070478D
:10833400800000F1A040D0F8003723F44033C0F8A7
:108344000037D0F8003743EA0141C0F800177047FE
:10835400054B4FF0FF32072843F8202084BF1B1839
:1083640083F84820704700BF8C6D002010B5174C6F
:1083740094F8583043BBFF21E2180133202B82F8D4
:108384003010F9D10021C8B2FFF7E2FF01310C2906
:10839400F9D1042200210E4802F0F9FB0D4BE02232
:1083A40083F806234022C3F880214FF4BE701A607C
:1083B400FFF7B2FF084B4FF00042C3F80423012338
:1083C40084F85830002010BD0820FCE78C6D002094
:1083D400E06D002000E100E000600040034B93F8F2
:1083E4005800003018BF0120704700BF8C6D00207A
:1083F400F0B5394D2C18944694F93040002C68DAC5
:108404008E78C6F34006002E15BF002308230827E4
:108414000C27BB4201D10420F0BD55F823200132C2
:108424004FEA830441D12F1845F823C087F8303030
:1084340016B9EA1882F848008A78560716D4D7077E
:1084440035D5820002F1A042D2F8006726F0020678
:10845400C2F80067214FC60800F0070C012202FA97
:108464000CF217F806C042EA0C02BA558A780E7864
:1084740012F0020224D004F1804303F5C043000249
:10848400D3F8102522F4473222F44072C3F81025A1
:108494003604D3F8102500F4F85006F4403630437F
:1084A4001043C3F810050020B6E70133B1E74E7856
:1084B40000F5E0724FF0A047B60047F82260C9E724
:1084C400083B2B4493F8500040EA861683F850602A
:1084D400E9E70820A0E700BF8C6D0020E06D0020D4
:1084E40038B5204C251895F93020072A18DD224488
:1084F40092F848309B09032B0DD14FF0A043D3F8D9
:108504001035C34013F0010F0CBF02210321BDE855
:108514003840FFF70DBF012B14BF03210221F6E7FA
:10852400D3B2072B1CD8930003F1804303F5C04357
:10853400D3F8100540F00100C3F8100502F1400023
:10854400800080B2FFF7E8FE51B195F9303054F85D
:1085540023302BB1012303FA02F2034BC3F80423A3
:1085640038BD00BF8C6D0020006000400E4B0344FA
:1085740093F93020072A02DD0021FFF7D9BED3B2D8
:10858400072B10D8930003F1804303F5C043D3F8BD
:10859400101521F00101C3F81015012303FA02F2AA
:1085A400024BC3F8082370478C6D00200060004024
:1085B4004FF0A043D3F8103523FA00F000F0010087
:1085C400704700002DE9FF470024584A584E594D82
:1085D400019401211368A2F5C040012B80B206D199
:1085E400D6F804330B4202D0FFF796FE0C43043254
:1085F400AA424FEA4101EDD14F4B1B68012B0AD12E
:108604004FF4BE70FFF788FE4FF0A04344F00044DF
:10861400D3F81035019314F0FF0F1AD0474F0025FB
:108624000126344210D0AB0003F1804303F5C0436C
:10863400D3F81005D3F8101557F82530C0F30420EB
:10864400C1F3014103B198470135082D4FEA4606AD
:10865400E7D1002C66DA00224FF0FF33CDE9022384
:10866400DFF8D8900127002634464FF0A04809EBE4
:10867400060393F95020531C45D0D2B222F0C00512
:10868400E90804A8084402F0070310F804CC07FA28
:1086940003F31CEA030F36D009EB050C92099CF98D
:1086A40030C059F82CA0BAF1000F0AD1032A2AD1FC
:1086B4000DF1080E1EF801C04CEA030C0EF801C0BF
:1086C40001E0032AF4D005F5E07110F80C0C58F819
:1086D40021101842C1F3014105D0022913D1032A04
:1086E4000BD1114604E003290DD1032A05D102213F
:1086F4002846FFF71DFE0134E4B2BAF1000F02D0A0
:1087040011462846D0470136042EB0D154B14FF05B
:10871400A043019AD3F81035934203D00193029BEE
:108724000393A0E704B0BDE8F08700BF00610040F8
:1087340000600040206100407C6100408C6D00209E
:10874400014B1B68184700BFE86D00200D4B984291
:1087540037B50D4610D102A8002300F8013DFEF7FD
:10876400EDFE094B1C7914B901221D601A719DF8A4
:108774000700FEF707FF14B9002003B030BD112035
:10878400FBE700BF00200040E86D0020034B984247
:1087940001BF034B00221A601A7170470020004089
:1087A400E86D00200023435082B043580193019B9D
:1087B40002B070470A4610B54FF48E71FFF7F2FF0E
:1087C400136A9168C95C136A01331362C0F81C15FB
:1087D40010BD8B690A4610B54FF4847123B9FFF7B5
:1087E400E1FFD0F8183510BDFFF7DCFF536AD168FC
:1087F400D0F81805C854536A01335362F3E70000F4
:108804001FB501238DF80030044BCDE90110D3E9E5
:1088140000126846904705B05DF804FBF06D002037
:1088240030B54C4AD2F8043313F4007F85B01546B2
:108834004FD0D2F82431002B4BD04FF49271104614
:10884400FFF7B0FF4FF40173C2F80833424B93F8BB
:10885400291009B9012151603E4902228DF80020F6
:10886400D1F88024C1F8802403929A690292DA68CC
:1088740001920022C3E906226846D3E90012904718
:108884003448D0F81C315BB133490A6A4B699A42C7
:108894000A464BD291F82830002B47D1FFF78AFFC4
:1088A4002C4AD2F8443193B14FF4A2711046FFF729
:1088B40079FF294B93F8291009B1012111609A69B4
:1088C4002AB100229A61586AD968FFF799FF05B066
:1088D40030BDD5F804335B07D2D5D5F80831002B69
:1088E400CED01D4C1B482146FFF773FF636AA26973
:1088F4009A422346C4D1E269E1684AB12369E3603C
:108904000023606AA261E3616362FFF779FFB7E75E
:1089140094F829200AB901226A600E4A4FF40170C2
:10892400C2F8080300229A61586AEEE74FF48E7188
:108934000848FFF737FF51690029B1D0002302919D
:1089440091688DF80030019153616846D2E90013B3
:108954009847A5E700200040F06D00202DE9F8437A
:108964005A4B047991462C2202FB0432064692F8B3
:108974002A200D469846002A40F0A38054490068F6
:10898400FFF7E4FE0746002840F09D80296833681D
:10899400481C0BD04FF0A04001228A40C0F80825A3
:1089A40001F5E0724FF0030C40F822C06868421CE5
:1089B4001FBF00F5E0724FF0A04C4FF0000E4CF8D2
:1089C40022E0AA6995F814C0C3F824256A7DBCF195
:1089D400010F4CEA0202C3F86C25C3F81405C3F86E
:1089E4000C151DD1AA68511C1FBF02F5E0714FF090
:1089F400A0404FF0000C40F821C0E968481C0BD09F
:108A04004FF0A04C01208840CCF8080501F5E07037
:108A14004FF0030E4CF820E0C3F80815C3F81025F6
:108A24002C23634308EB0302C2F804902A6948F834
:108A34000320B9F1000F31D04FF48E7130682D7FCF
:108A4400FFF7B0FE30684FF4A271FFF7ABFE326857
:108A5400204BC2F80433120B53B2002BA8BF03F10E
:108A640060404FEA53134FEA4511BABF1A4802F067
:108A74000F0500F561404FEA8303C9B203F1604377
:108A8400B4BF415580F8001303F5614302F01F029F
:108A9400012101FA02F2C3F880211A60336804222A
:108AA400C3F800252C2303FB04830022C3E9062218
:108AB40083F829205A61012283F82A203846BDE828
:108AC400F8830827FAE71127F8E700BFF06D0020C4
:108AD400258802008000020014ED00E0F8B5047956
:108AE40000682D4D0023C0F800352C2303FB0453EC
:108AF4005B6873B1294BC0F80833020B53B20121F0
:108B04005B0902F01F0201FA02F22033244941F802
:108B14002320D0F80C65D0F81415D0F80835D0F817
:108B240010254FF0FF37BE42C0F8147518BF06F584
:108B3400E076C0F80C75C0F80875C0F810751EBF53
:108B44004FF0A0474FF0020C47F826C04E1C1FBF41
:108B54004FF0A04601F5E071022746F82170511C40
:108B64001FBF4FF0A04102F5E072022641F82260D7
:108B74005A1C1FBF03F5E0734FF0A042022142F8D4
:108B84002310FFF703FE2C2303FB0454002384F873
:108B94002A306360F8BD00BFF06D0020840202003B
:108BA40000E100E02DE9F843224F06794FF02C094B
:108BB40009FB067480466569002D37D16261A160A6
:108BC40025624FF48E71006884F82850FFF7EAFD9F
:108BD400D8F80000012383602146FFF7EBFD6368AA
:108BE400A1462BBBD8F80050226A63699A4212D37B
:108BF400D8F80030D3F81C21002AFBD00122DA6017
:108C040000202C2303FB067600237361BDE8F88360
:108C140094F8283043B9D5F81C31002BF8D04946D4
:108C24002846FFF7C7FDDFE70F20EAE71120EDE74D
:108C34002846EBE7F06D00200023435082B04358F0
:108C44000193019B02B070471FB501238DF80030DA
:108C5400054B8DF8080001916846D3E9001290474E
:108C640005B05DF804FB00BF1C6E00207FB5384AD8
:108C7400D2F82461002E49D010464FF49271FFF7C8
:108C8400DBFF02238DF80030D2F88034C2F8803440
:108C94000393D2F83C358DF808302E4BDA680192F4
:108CA4000022C3E906226846D3E900129047284A05
:108CB400D2F8443173B14FF4A2711046FFF7BCFFF0
:108CC400244B996931B100219961D2F83C05D968E6
:108CD400FFF7BAFF1E4AD2F82031ABB14FF49071BE
:108CE4001046FFF7A9FF1B4B596969B1D2F84C151F
:108CF4008DF80810002299688DF8002001915A61BE
:108D04006846D3E90012904704B070BDD2F8103120
:108D1400002BCCD04FF488711046FFF78DFF0D4B1C
:108D2400D2F83C0599698842C1D1DC69D96864B13B
:108D3400D2F8005225F02005C2F800521A699C614D
:108D4400DA60DE61FFF780FFB1E79C61FAE700BFFC
:108D5400002000401C6E00202DE9F8435E4B06798C
:108D64009146242202FB0632044692F820200D4646
:108D74009846002A40F0AB8058490068FFF7E6FCAB
:108D84000746002840F0A58029682368481C0BD0BA
:108D94004FF0A04001228A40C0F8082501F5E07296
:108DA4004FF0030C40F822C06868421C1FBF00F556
:108DB400E0724FF0A04C4FF0000E4CF822E0AA698C
:108DC40095F814C0C3F824256A7DBCF1010F4CEA60
:108DD4000202C3F86C25C3F80C15C3F814051DD1A1
:108DE400AA68511C1FBF02F5E0714FF0A0404FF07C
:108DF400000C40F821C0E968481C0BD04FF0A04C8F
:108E040001208840CCF8080501F5E0704FF0030E0E
:108E14004CF820E0C3F80815C3F810252423734345
:108E240008EB0302C2F804902A6948F80320B9F158
:108E3400000F3BD04FF4887120682D7FFFF7FCFEB4
:108E44004FF490712068FFF7F7FE4FF49271206899
:108E5400FFF7F2FE20684FF4A271FFF7EDFE2268DF
:108E64001F4BC2F80433120B53B2002BA8BF03F1FB
:108E740060404FEA53134FEA4511BABF194802F054
:108E84000F0500F561404FEA8303C9B203F1604363
:108E9400B4BF415580F8001303F5614302F01F028B
:108EA400012101FA02F2C3F880211A602368082222
:108EB400C3F80025242303FB06830022C3E906220A
:108EC4005A61012283F820203846BDE8F883082738
:108ED400FAE71127F8E700BF1C6E0020718C02002E
:108EE4001003020014ED00E0F8B5047900682D4D7C
:108EF4000023C0F80035242303FB04535B6873B1DB
:108F0400294BC0F80833020B53B201215B0902F06C
:108F14001F0201FA02F22033244941F82320D0F839
:108F24000C65D0F81415D0F80835D0F810254FF09A
:108F3400FF37BE42C0F80C7518BF06F5E076C0F8DE
:108F44001475C0F80875C0F810751EBF4FF0A0471F
:108F54004FF0020C47F826C04E1C1FBF4FF0A0462E
:108F640001F5E071022746F82170511C1FBF4FF034
:108F7400A04102F5E072022641F822605A1C1FBF8C
:108F840003F5E0734FF0A042022142F82310FFF7EB
:108F9400FDFB242303FB0454002384F82030636086
:108FA400F8BD00BF1C6E00201003020000E100E0C9
:108FB40001F06043B3F1005F2DE9F041074632D17F
:108FC4001C4B0679242505FB063598466C6964BB61
:108FD4006A61A96000684FF49071FFF72DFE4FF4A9
:108FE400AC713868FFF728FE3B686A69A968C3F862
:108FF4004415C3F8482501229A606A68BAB9D3F8BF
:109004002011D3F8582149B9002AF8D00F2024237D
:1090140003FB068600237361BDE8F081002A14BFB8
:109024000F200020F3E71020F6E71120F4E7204694
:10903400F2E700BF1C6E002072DF704773DF7047D9
:1090440076DF70477ADF70477CDF70477FDF7047D9
:109054008FDF7047B1DF7047FDF78ABF08B5064B55
:1090640001211878FFF7EAFF08B1FDF781FF00201E
:10907400BDE80840FEF7A8BF906600202DE9F04146
:109084000D288CB00D462BD101A801F057F8174ECE
:10909400002443F2020743F20148019AE3B29342E7
:1090A4000AD3134B13491888000440F003000CB092
:1090B400BDE8F041FDF794BC0CAA02EB4303314632
:1090C4002A4633F8280C01F031FA30F0080205D0B2
:1090D400B84203D0404501D0FDF74AFF0134DCE734
:1090E4000CB0BDE8F041FDF743BF00BFDC6E0020CB
:1090F40034660020EEBB0200FDF73ABFF0B5344DF4
:10910400344904462888000485B040F00300FDF784
:1091140067FC278A28880026012F03962DD9A67C70
:10912400E47C0094000433463A462B4940F00300A3
:10913400FDF76EFC2888012E4FEA004040F0030042
:10914400224634D12549FDF74FFC04F110039E401B
:109154004FF0A043C3F80C65240204A944F00104B1
:1091640041F8044D1E4800F097FA28881D49000470
:1091740040F00300FDF734FC17E04FEA004040F0F4
:10918400030007D1A67C184933463A46FDF736FC5E
:109194003C46CFE71549FF233246FDF72FFC04A9CF
:1091A4000F4841F8046D00F077FA05B0F0BD5EB9E0
:1091B4000F49FDF719FC04F11002012393404FF00D
:1091C400A042C2F80835C7E70A49FDF70DFCCCE711
:1091D400346600204ABC02005FBC0200EFBC0200FF
:1091E400F46E002035BD02008EBC0200C4BC020037
:1091F40008BD020022BD02000388212BF7B50446F6
:1092040061D02FD8112B3AD0132B55D0102B2ED13F
:1092140000F082FF3C4BA2883C493D4E054618882D
:10922400000440F00300FDF7DFFB0C2700234FF69A
:10923400FF7207FB0360418891421ED1A18801F0AF
:1092440003F908B1FDF794FEFDF762FE08B1FDF7DE
:109254008FFE0120FEF7B8FE0A2D2AD10020FEF76A
:10926400BFFE04E0502B42D003D83B2B3AD003B0CE
:10927400F0BD522B2FD0562BF8E70133D9E700F07D
:109284004BFF214BA288234905461888237A000402
:1092940040F00300FDF7B2FB4DB90120FEF7A0FE3C
:1092A400FDF74CFE0028E2D0FDF762FEDFE7092D52
:1092B400DDD1FFF7D3FEDAE700231A468521808843
:1092C400FFF7C4FEEEE702A9002321F8043D8088DD
:1092D400FFF7BEFEE6E700231A4619468088FFF72B
:1092E400B9FEDFE71321A088FFF7AAFEDAE7064BF1
:1092F40009491888000440F00300FDF771FB20467B
:10930400FFF7FCFEB3E700BF3466002078BB020021
:10931400006F00209FBB0200D3BB020080B54FF456
:109324000041A4B00020FDF793F908B1FDF720FE39
:10933400FDF7BEF8FEF76CF808B1FDF719FE012041
:10934400FEF769FE40F2666201216648FDF78CFD76
:1093540008B1FDF70DFEFEF755FC08B1FDF708FE58
:1093640001F04EF908B1FDF703FE24AC002344F8E4
:109374003C3D0120214601F0D1F908B1FDF7F8FD8B
:10938400204601F075FA08B1FDF7F2FD24AE112371
:10939400554806F8783D01F04FFC534982B23046F7
:1093A400FFF752FE08B1FDF7E3FD08220021204635
:1093B40001F0EDFB4D4A4FF0C8732046CDE915236B
:1093C400FFF740FE08B1FDF7D3FD0021484800F047
:1093D40015FF08B1FDF7CCFD464BDFF83C81159332
:1093E40000250C27214607FB058001F01BF808B176
:1093F400FDF7BEFD01350A2DF4D13F4800F096F883
:109404003C220021304601F0C2FB022301258DF8E5
:1094140018303C220623002120468DF81A508DF87E
:109424001B3001F0B4FBADF86450344D344B296863
:109434001A932A1D304600F0C8FA08B1FDF798FDCA
:10944400304AA968204600F0C0FA08B1FDF790FD43
:1094540018220021684601F09AFB00234FF496720B
:10946400CDE9013201228DF80020ADF80C306A46B6
:109474004FF4807321492448ADF81430FFF7DCFD24
:1094840008B1FDF775FD1C220021204601F07FFB89
:1094940000234FF42022CDE91532ADF862304FF4A9
:1094A4002032012317928DF864300322174B8DF874
:1094B400602020461B9300F053FD08B1FDF758FDD2
:1094C400134B14491888000440F00300FDF788FA90
:1094D400FFF7C4FDFDF722F90028FBD1FEF7A8FB36
:1094E400F8E700BF7866002022BC02005000A0000C
:1094F400806E00205D900200F46E002080660020E3
:10950400926600208C66002090660020FD90020088
:109514003466002029BC0200006F0020A8DF7047D9
:10952400AADF7047AEDF704762DF7047F0B5564B75
:109534009BB006AA03F11007054694463E461868F8
:109544005968144603C40833BB422246F7D14FF28C
:109554000D030DF10A016046ADF80830FFF7E4FF92
:1095640008B1FDF705FD2A464FF6FF7322F8023BCA
:1095740002A90120FFF7D2FF08B1FDF7F9FC0AAAFE
:10958400414B174618685968144603C40833B3425C
:109594002246F7D14BF6EF62ADF80C209DF80E3061
:1095A40003993A4800F080F90DF10E013846FFF7AF
:1095B400BBFF9DF80E30BDF80C20039904463348D8
:1095C40000F072F914B12046FDF7D2FC1C220021F0
:1095D40013A801F0DCFA9DF84C30032243F00A038F
:1095E400002168468DF84C3001F0D1FA9DF8023024
:1095F400CDF860D0012767F342038DF802309DF85F
:109604004C3001AC43F0100341F211160322002147
:1096140020468DF84C30ADF8006001F0B8FA9DF8A2
:109624000630ADF8046067F34203142200210EA84B
:109634008DF8063001F0ABFA03ABCDE90E3400230C
:109644008DF81430124B04930523ADF84430ADF873
:10965400403004AB12930EAA2B1D13A96888FFF7A0
:109664005FFF08B1FDF784FC0A4D0024062001F0D9
:10967400FDF9282245F824000021013401F087FA7D
:109684000A2CF3D11BB0F0BD4ABD02008FBD02000D
:1096940012345678306F002030B5102289B0044659
:1096A4000D4604230DEB02000021ADF80E3001F04D
:1096B4006EFA1049A3880888ADF8103001238DF89C
:1096C400123000232968ADF8143000040DF10E03A4
:1096D400CDE906352288BDF80E30009140F0030034
:1096E4000549FDF795F904A92088FFF71BFF09B088
:1096F40030BD00BF346600205ABD02000369C16852
:109704008B429DBF8268D21802F1FF3203F1FF330E
:1097140094BF501A581A70472DE9F041D0E90267F6
:109724000446F61B4068964288461546384405D9D7
:1097340001F004FA3D44E560BDE8F0813246AD1B1A
:1097440001F0FCF92A4608EB0601606801F0F6F91D
:10975400F1E72DE9F843C5680646894617464FF0F8
:1097640000083469B3687068A54228BFE418013C56
:10977400621B5C1BBC4228BF3C46944228BF144673
:1097840049462844224601F0D9F9B3682544AB423E
:1097940008BF00253F1BA044A144F560E1D1404629
:1097A400BDE8F88310B5114C114AA2610223C4E943
:1097B4000433104BE361A2644FF400730E4A236236
:1097C400E264002310220D49A362E01D6362E36298
:1097D400A3656365E365226501F00CFA0849204638
:1097E40001F008FA2023A37110BD00BF586F0020B8
:1097F400B0BD0200E06F0020D06F0020B9BD0200B0
:10980400BDBD0200F8B5184C182300FB033503FB5B
:1098140000402544C46A012C0F46164611D003D3D8
:10982400022C1BD000240AE02846FFF767FF86427B
:1098340005D8324639462846FFF76EFF344620469F
:10984400F8BD2846FFF75AFF8642344628BF04462F
:10985400224639462846FFF75FFFF0E72846BDE871
:10986400F840FFF776BF00BF586F002073B50D4B6B
:109874001B7804460D4616460BB9FFF793FF02A862
:10988400002300F8013DFDF759FE324629462046E3
:10989400FFF7B8FF04469DF80700FDF773FE204666
:1098A40002B070BD586F00200FB410B5A2B024AB45
:1098B400802153F8042B019302A801F031F9802888
:1098C40004460ADD802202A90020FFF7CFFF2046CC
:1098D40022B0BDE8104004B070470028F7DD02460E
:1098E400F1E76DDF704779DF70477DDF704764DF34
:1098F40070472DE9F74F0C9CBDF834B0278800253C
:1099040080468A4691462E46B8F80020B2420BDCC7
:1099140035B12288013AD21B92B2FF2A39D8DA55DE
:10992400002003B0BDE8F08FD8F8042052F82600D8
:10993400019000220DF1030101A8FFF7D8FF0028D0
:10994400EFD19DF803204A4521D12288002D14BF70
:109954000020022002EB09010144594519DC3DB9FC
:10996400013292B2228003F802A0228801322280BE
:1099740022880DF103011A4401A8FFF7B8FF00285B
:10998400CFD121889DF803200A4422800125013685
:10999400BAE70C20C5E72DE9F341089CBDF8245033
:1099A4001746CDE9004502220646FFF7A2FF48B953
:1099B400102239463046CDE9084502B0BDE8F041F1
:1099C400FFF797BF02B0BDE8F0812DE9F04F002307
:1099D4001688138090F82D3085B007460D4614463E
:1099E40053B3082E01D80C2004E102A8FFF779FF35
:1099F400002840F0FF8013880822CA5423880133CA
:109A04009BB21B222380CA542088013080B220805C
:109A140006220DF10901284401F090F823889DF8ED
:109A2400082006339BB212F0FE0218BF01222380E5
:109A3400EA54238801332380BB78FBB123880433A1
:109A4400B342D0D802A8FFF74EFF002840F0D280DE
:109A540023880322EA54238801339BB219222380EA
:109A6400EA542388BDF8082001339BB2E918238007
:109A7400EA54120A4A70238802332380FA789AB18E
:109A84002388D91CB142AED80221E954238801337A
:109A94009BB201212380E95423880B449BB2238089
:109AA400EA5423880B4423807A68AAB12388D91CFA
:109AB400B14298D8022192F90020E9542388013355
:109AC4009BB20A212380E954238801339BB223806B
:109AD400EA542388013323803B89002B7ED13B8ABF
:109AE40053B1CDE900462B460722032107F11000AC
:109AF400FFF751FF00287DD13B8B53B1CDE90046E0
:109B04002B461522142107F11800FFF744FF002803
:109B140070D13A6A002A70D1D7F82480B8F1000FC6
:109B240030D0B8F804302188981C8A1C0244B24210
:109B34003FF659AFFE283FF656AF03336B542388E4
:109B440001339BB2FF222380EA54238801339BB262
:109B54002380B8F80020EA54E918120A4A702088D1
:109B6400023080B22080B8F804205AB1D8F8081026
:109B740000294CD0284400F0E1FF2388B8F80420E1
:109B84001344238097F82C30002B7BD1387888B38A
:109B94003B88012B3BD021888A1CB2423FF623AF7D
:109BA400012805D17B7802330B449E42FFF41BAF9E
:109BB400023E761A04A9B6B221F8086DA818FFF778
:109BC40094FEB8B93B78022B40F09F80BDF8083072
:109BD400B34240F2B680ADF808609FE0CDE900469C
:109BE4002B460622022107F10800FFF7D4FE0028C5
:109BF4003FF475AF05B0BDE8F08FB4F800C00CF1C8
:109C04000603B3423FF6EFAE1188052901D80720B9
:109C1400F0E76FF4486E01EB0E039BB24FF27D3E0A
:109C24007345F4D95388052BF1D96FF4486018189B
:109C340080B27045EBD94FF6FF70814203D0834266
:109C440001D09942E3D8052305F80C302388013369
:109C54009BB212212380E954238801339BB22380D1
:109C64001188E954E818090A4170238802339BB229
:109C740023805288EA54E918120A4A70238802336E
:109C8400238049E7BB6A002BC1D04FF000094FF095
:109C94000C0A4FF0160B97F82C305FFA89F29342B6
:109CA4007FF674AFB96A0AFB02F201EB0208B8F856
:109CB4000430981CFE283FF696AE208803332B54BC
:109CC400238801339BB2238005F803B02388013332
:109CD4009BB223808A5AEA54E918120A4A702088EF
:109CE400023080B22080B8F804205AB1D8F80810A5
:109CF40000298CD0284400F021FF2388B8F80420E0
:109D04001344238009F10109C5E7012B7FF463AFF4
:109D14007B789E42FFF45FAFADF808300821BDF8B0
:109D24000830FE2B3FF65FAE22880133AB54228805
:109D3400013292B22280A954228813442380002045
:109D440058E70921EBE775DF704776DF70477ADF64
:109D540070477BDF70470000074B30B500221424A6
:109D640004FB02F1CD5A854201D1581830BD0132AD
:109D74000A2AF5D10020F9E7FC710020024B9B6907
:109D840003B11847704700BFE071002037B585B2B2
:109D94002846FFF7E1FF034670B1164C017A227B97
:109DA40091420BD200F10A012846FFF7CCFFE8B13B
:109DB400112801D0FFF7E2FF03B030BD237C00225D
:109DC400027243B13B212846FFF7BFFF30F008037E
:109DD40001D0FFF7D3FF6369002BEDD000228DF88B
:109DE4000420ADF8065001A89847E5E71A7A013235
:109DF4001A72E1E7E071002013B50B46497A0F4C63
:109E0400024669B9D4E901101C7A002C18BF014636
:109E14005868FDF73FFB08B1FFF7B0FF02B010BD73
:109E2400002119726369002BF8D00121ADF80600F6
:109E34008DF8041001A89847F0E700BFE0710020F6
:109E44008388B3F5FA7F28BF6FF4F97230B528BF61
:109E54009C1805884A8838BF002495420CD840884D
:109E6400904209D38A88A24206D303F2F3109042A7
:109E740034BF0020012030BD0020FCE70388112BF3
:109E840070B5044649D002D8102B1ED070BD122BD9
:109E940053D0502BFAD1304BC288DB899A42F5D18A
:109EA400038A022BF2D186883046FFF755FF054618
:109EB4000028EBD004F1120000F054F938BB6868B4
:109EC400FDF72CFB0028E1D009E0C37B012BDDD199
:109ED4004FF6FF70FFF740FF054620B90420BDE8A8
:109EE4007040FFF74BBF1D4AA6880680002303720B
:109EF4001368C5F80A300A305368436004F110014E
:109F0400FFF79EFF144B6872DB89002BBED12946F4
:109F14003046BDE87040FFF76FBF8088FFF71CFF35
:109F240004460028B2D04068FDF7F8FA08B1FFF7FC
:109F340025FF4FF6FF732380A8E786883046FFF796
:109F44000BFF05460028A1D004F108010A30FFF7F1
:109F540077FF6872DBE700BFE0710020C472002065
:109F64002DE9F041064698B305460FCD1A4F3C46FD
:109F74000FC495E8070084E807003068174B3B607E
:109F8400F8B1FFF7E4FE08BB31680A681A604A6852
:109F94005A60134C134FDFF8508000254FF6FF76BC
:109FA40007EB451324F8046C236042460021204645
:109FB400FDF75EFA70B901350A2D04F11404EFD1EE
:109FC40004E01846FFF7C5FE0028E2D0BDE8F081A2
:109FD4000E20FBE70320F9E7E0710020C4720020A3
:109FE40000720020CC720020919D020073B5019193
:109FF400019C06466CB100252C46294601A8FDF7B4
:10A00400EAFA18B106EB440301349D800135142D9E
:10A01400F3D13046346002B070BD00002DE9F04346
:10A0240003888488112B8DB0064640D01A2B43D068
:10A03400102B16D1294DAB680CA8DB4340F8303DFA
:10A0440055F8041FFDF7F0FA009901A8FFF7CEFFB9
:10A054000027019B9F4207D3132C18D90420FCF737
:10A0640087FF0DB0BDE8F08301AB03EB47034FF06E
:10A074000008B3F8049005EB0800494608F1040809
:10A08400FDF79FFAB8F1740FF5D10137E1E72146E6
:10A094001348FDF78DFA21461248FDF789FAF37B40
:10A0A400012BDED010482146FDF782FAD9E70C488F
:10A0B4002146FDF786FAD4E7057A0C482D09012DCF
:10A0C400214606D9FDF774FA022D21460848F0D03E
:10A0D400EAE7FDF776FA21460548EAE70C74002022
:10A0E4001474002010740020187400201C740020C4
:10A0F4002074002073B502AE002446F8040D2546F2
:10A1040021463046FDF767FA00B101350134142CBD
:10A11400F6D1284602B070BD07B5074AD36802A835
:10A12400DB4340F8043D9168FDF77EFA0198FFF7A0
:10A13400E1FF03B05DF804FB0C74002013B5084A7A
:10A14400D368044602A8DB4340F8043D9168FDF758
:10A154006BFA20460199FFF749FF204602B010BD73
:10A164000C740020007800F00100704790DF704705
:10A17400A5DF7047B5DF7047F0B585B00023ADF8B3
:10A184000810ADF80A106A4602A907460393009323
:10A19400ADF80430FFF7EAFF064618B3134C2588E0
:10A1A400FDF7A0FD2D0445F0010503463A4610498C
:10A1B4002846FCF723FCBDF80020BDF8023002B9A4
:10A1C40033B120880B49000440F00100FCF716FC71
:10A1D400BDF8042032B120880749000440F0010092
:10A1E400FCF702FC304605B0F0BD00BF406600201D
:10A1F400C4BD02000EBE02004DBE020010B5A0B1E7
:10A204004FF0171303601B238165037100F15004A1
:10A2140017210022C18001818272C27203734373C9
:10A224000830A042F6D1002010BD0E20FCE700004B
:10A234002DE9F3418588092D0C4617D80388232B73
:10A244004FEAC50700F0BB8013D8102B29D0112B7F
:10A254005AD03C44A37A4BB1E1882846FFF788FFE3
:10A26400002840F0B3800123A072E37202B0BDE87D
:10A27400F0813A2B53D0552B6ED0242BE9D1CB1936
:10A28400027A5A738B6D002BE3D00021ADF80410D1
:10A294004DF67A21ADF80010ADF802508DF8042087
:10A2A40089E0C37B0A79CE19012B327313D0022BB8
:10A2B40014D0F18833898B4205D22846FFF758FF22
:10A2C40070B90123F372317B737B8B42C1D2284670
:10A2D400FFF752FFBDE70B88F380EAE74B88FBE703
:10A2E400112802D10123B372EDE7404BB3F800808B
:10A2F400FDF7F8FC4FEA084848F0010802463C49DB
:10A304004046FCF771FBDEE7CB191722DA801A818D
:10A3140000229A72DA721B221A735A7399E7CE19C1
:10A324004389F288934228BF1346172B8A6D38BF9E
:10A334001723338162B1F17A51B140F67721ADF838
:10A344000010ADF80250ADF804306946204690473D
:10A354000023F372B3727CE7C388CE19172BF188FC
:10A3640038BF17238B4228BF0B4633810023B372B7
:10A374002846FFF7FFFE68B11C4BB3F80080FDF7D9
:10A38400B1FC4FEA084848F0010802461949404622
:10A39400FCF72AFBF37A002B7FF45BAFA36D002B51
:10A3A4003FF457AF40F67722ADF800203289ADF87C
:10A3B4000250ADF8042069462046984749E7CB1976
:10A3C400017A1B7B994228BF194680E711283FF484
:10A3D4004DAF064B1C88FDF785FC240444F00104B2
:10A3E400024603492046FCF7FFFA3FE74066002097
:10A3F400A3BE0200D4BE0200B0DF704766DF704720
:10A40400034610B500214088FFF7F8FF024608B95B
:10A414001A7210BD112801D10122F9E75B68BDE869
:10A424001040184760B159B10378DE2B0AD00B688D
:10A434004360DE2303704FF6FF73438000207047B0
:10A444000E2070470820704728B10378DE2B04D112
:10A454004180002070470E20704708207047F0B5F7
:10A46400054685B00C46F1B1E8B10B78DE2B1AD164
:10A4740082884B889A4204D10B7A13B10846FFF7BD
:10A48400BFFF2B88112B32D0512B0ED0012B0AD1B8
:10A494002B7A012B07D1A9886288914203D12372B8
:10A4A4002046FFF7ADFF05B0F0BDAE886388B34228
:10A4B400F9D1AF79022FF6D1AD7B2B1F022BF2D845
:10A4C40000211022684600F062FB052D14BF4FF4F2
:10A4D400C0730023694630468DF80070ADF804302F
:10A4E400FFF78AFF0028DED063689847DBE76388BC
:10A4F400AA889A4204BF4FF6FF736380D3E7AEDFA6
:10A5040070470288502A10B40DD1C4884A889442F6
:10A5140009D1028A012A06D14B6923B1827C5DF8F4
:10A52400044B808818475DF8044B704770B588B0B9
:10A534000E468DF807201022054601240DEB02007B
:10A544000021ADF80E4000F022FB7389ADF8103005
:10A554000DF10703079304A90DF10E0328468DF8A6
:10A5640012400693FFF7CBFF08B070BD10DF7047B1
:10A5740013B5044609496846FDF780FB019808B9FC
:10A5840002B010BDD0E900312046984718B16846A2
:10A59400FDF77EFBF2E71120F2E700BF14BF0200D3
:10A5A40013B5044607496846FDF768FB019B0BB9E0
:10A5B40002B010BD2046D3E9002190476846FDF75C
:10A5C40067FBF3E72CBF02000B4A92F816335B09D2
:10A5D400012B08D9042B06D0084B996839B94FF4DC
:10A5E40080031360704742F20200FCF7C1BC1A6892
:10A5F40042F480021A60704700E100E0486D0020D8
:10A60400F7B51B4F3C788CBB1A4E0125204635709C
:10A61400FFF7AEFF112826D02046FFF7C1FF164BE7
:10A624001868019002A800F8054DFCF787FF13494C
:10A6340001A8FFF79BFF0446B0FA80F04009387088
:10A644009DF80300FCF79EFF6CB90D4B34701C7031
:10A654000C4BE02283F8162383F81523FFF7B4FF8D
:10A664002846FFF79DFF204603B0F0BD0824FAE713
:10A67400857400208474002010BF0200916F0200D2
:10A684008674002000E100E0014B1878704700BF99
:10A694008574002007B508496846FDF7EFFA019B69
:10A6A40013B903B05DF804FBD3E900209047684672
:10A6B400FDF7EEFAF3E700BF20BF0200FFF7EABFA1
:10A6C40060DF704769DF704761DF704730B5114B59
:10A6D4001B7891B0E3B1104D34240DF1020103A8AD
:10A6E400ADF80240FFF7F0FF70B9294601A8FDF765
:10A6F400C5FA029B002BF0D003A8D3E900219047B0
:10A7040001A8FDF7C5FAF4E7052801D0FCF730FCF1
:10A7140011B030BD877400206CC1020030B505460D
:10A7240085B00C46002900F093804A4B0B600C2244
:10A73400002101A800F02BFA04238DF806302268CA
:10A744008DF80450062301A92020ADF80830FFF746
:10A75400B9FF58B1404B1D88FDF7C4FA2D0445F0EC
:10A76400010502463D492846FCF73EF90C2200212A
:10A7740001A800F00CFA0A238DF8053022680023A2
:10A7840001A940208DF806308DF80730FFF79AFFB5
:10A7940058B1314B1D88FDF7A5FA2D0445F001058C
:10A7A40002462F492846FCF71FF90C22002101A874
:10A7B40000F0EDF9012022688DF8040001A9FFF7EB
:10A7C40081FF58B1244B1D88FDF78CFA2D0445F008
:10A7D4000105024623492846FCF706F90C2200210C
:10A7E40001A800F0D4F94FF4B0632268019301A9E1
:10A7F400A120FFF767FF58B1174B1D88FDF772FAC8
:10A804002D0445F00105024617492846FCF7ECF8EB
:10A814000C22002101A800F0BAF99DF80430226846
:10A824006FF3000301A9A0208DF80430FFF74AFF5D
:10A8340060B1094B1C88FDF755FA240444F0010467
:10A8440002460A492046FCF7CFF8002005B030BD87
:10A854000E20FBE7206600204866002040BF02006F
:10A8640086BF0200D2BF02001EC002006FC00200F9
:10A87400F8B504460768FFF723FF2368BB42054683
:10A8840020D91A4E1A493088000440F00200FCF71F
:10A89400A7F830882368174900043A4640F00200BC
:10A8A400FCF7ACF84FF080533088D3F80C312268B1
:10A8B40011499B0203F1005300049A1A40F002006C
:10A8C400FCF792F825B90D4B01221A702846F8BD01
:10A8D400064B28461C88FDF705FA240444F00104BD
:10A8E400024607492046FCF77FF8EFE74866002058
:10A8F400C2C00200F1C0020022C10200877400201D
:10A904004CC102004BDF70471FB50D4C01A8FFF787
:10A91400F9FF70B9214602A8FDF7B0F9039B002B9B
:10A92400F4D00198D3E90021904702A8FDF7B0F9CB
:10A93400F4E7052801D0FCF71BFB04B010BD00BFF1
:10A9440084C102007F2805D8034B185C034B5B5C71
:10A9540018407047002070479CC102001CC20200CE
:10A96400A0F16103192B98BF20387047A0F141036F
:10A97400192B98BF203070477F2805D8034B185CEB
:10A98400034B5B5C18407047002070479CC1020079
:10A994001CC20200A0F16103192B98BF2038704734
:10A9A400A0F14103192B98BF203070477F299ABF2B
:10A9B400017001206FF02E0070475AB10A787F2A87
:10A9C4000AD800B10260002119605960501A18BFFA
:10A9D40001207047002070476FF02E00704738B593
:10A9E40004460846A26842B1236861685D1C8D4232
:10A9F40008BF00208B4208D2D054E3682BB12168F1
:10AA04006268914201D2214698472368013323604A
:10AA140038BD70B54C1E09D41646C5B22946304619
:10AA2400FFF7DDFF013CB4F1FF3FF7D170BD10F03B
:10AA3400100F09D108B500F40070002814BF3020AD
:10AA44002020FFF7E6FF08BD7047000008B5034B60
:10AA54005B689B681B68984708BD00BF9866002028
:10AA640008B50921FFF7F2FF08BD000038B5214BF6
:10AA7400214A9B1A102B3BD9044600F00DF904F12E
:10AA8400130020F00F021D4B196869B34B689A42FA
:10AA94000CD04FF0FF34002513E041B103680B6084
:10AAA400044644F8042B00F0F8F81BE0084601685B
:10AAB400124B1960F4E7086850B143689342ECD034
:10AAC40001469A42F7D2A3423CBF1C460D46F2E728
:10AAD40055B16B689B1A6B60A31AEC18EA5000F02E
:10AAE400DCF80434204638BD00F0D7F80024F9E738
:10AAF4000024F7E78C9400208C740020AC660020BE
:10AB040003784BB151B10144034613F8012F0AB144
:10AB14008B42FAD1181A70470346FBE70346F9E75C
:10AB240010B584B0144602900022039201911A4693
:10AB34002146684600F0B2F804B010BD844640EAED
:10AB4400010313F0030F18D18446202A0BD32DE9F7
:10AB5400F007B1E8F807A0E8F807A2F12002202ADC
:10AB6400F7D2BDE8F007042A07D351F8043B40F8B4
:10AB7400043BA2F10402042AF7D2002A05D011F8FA
:10AB8400013B00F8013B013AF9D160467047844625
:10AB9400002A2DD010F0030F04D000F8011B013A55
:10ABA40026D0F7E7C9B241EA012141EA0141202A4E
:10ABB40012D3A2F120022DE9F0030B460C460D46F8
:10ABC4000E460F4688468946A0E8FA03203AFBD28F
:10ABD400BDE8F00320320BD0042A05D340F8041B4F
:10ABE400043A05D0042AF9D200F8011B013AFBD13A
:10ABF40060467047024610F0030F16D111F0030FA0
:10AC040013D12DE9F0004FF001374FF0803351F8A4
:10AC1400044BA4EB070525EA04051D4002D142F8C4
:10AC2400044BF4E7A1F10401F0BC11F8013B02F874
:10AC3400013B002BF9D1704700F1010110F0030F23
:10AC440011D010F8012B002A23D010F0030F0AD0E2
:10AC540010F8012B002A1CD010F0030F03D010F8B9
:10AC6400012B002A15D02DE970004FF001324FF06E
:10AC7400803350F8044BA4EB020525EA04051D407B
:10AC840000D1F6E7A0F1040070BC10F8012B002AF3
:10AC9400FBD1A0EB01007047704770472DE9F04FDE
:10ACA40089B080460F46039200230360DFF81CA698
:10ACB40080E3002502E045F040052646344614F8BA
:10ACC400010BA0F120033E2B00F2948001A252F864
:10ACD40023F000BFBBAC0200F9AD0200F9AD0200E5
:10ACE400D5AD0200F9AD0200F9AD0200F9AD0200E4
:10ACF400DBAD0200F9AD0200F9AD0200F9AD0200CE
:10AD0400E7AD0200F9AD0200EDAD0200F9AD0200BD
:10AD1400F9AD0200F3AD0200F9AD0200F9AD020095
:10AD2400F9AD0200F9AD0200F9AD0200F9AD02007F
:10AD3400F9AD0200F9AD0200F9AD0200F9AD02006F
:10AD4400F9AD0200F9AD0200F9AD0200F9AD02005F
:10AD5400F9AD0200F9AD0200F9AD0200F9AD02004F
:10AD6400F9AD0200F9AD0200F9AD0200F9AD02003F
:10AD7400F9AD0200F9AD0200F9AD0200F9AD02002F
:10AD8400F9AD0200F9AD0200F9AD0200F9AD02001F
:10AD9400F9AD0200F9AD0200F9AD0200F9AD02000F
:10ADA400F9AD0200F9AD0200F9AD0200F9AD0200FF
:10ADB400F9AD0200F9AD0200F9AD0200F9AD0200EF
:10ADC400F9AD0200F9AD0200F9AD0200E1AD0200F7
:10ADD40045F0800571E745F400456EE745F480557C
:10ADE4006BE745F0200568E745F0100565E745F495
:10ADF400007562E72A2814D0A0F13003DBB2092BD6
:10AE04000DD8002101EB8101303800EB410114F829
:10AE1400010BA0F13003DBB2092BF3D90CE00021C4
:10AE24000AE0039B1A1D039219680029BCBF49421A
:10AE340045F01005B41C707821EAE1762E280FD075
:10AE44000021742830D07A282ED06C2800F0AC80F1
:10AE54004C2800F0AE80682800F0BB80274625E02F
:10AE640020782A2815D00134A0F13003DBB2092B55
:10AE74000DD8002101EB8101303800EB410114F8B9
:10AE8400010BA0F13003DBB2092BF3D907E0002159
:10AE940007E0039B1A1D03921968607802340029A5
:10AEA400CFDB45F48075CCE7671C2078782800F266
:10AEB4009C80DFE810F05C029A009A009A009A00E5
:10AEC4009A009A009A009A009A009A009A009A00AE
:10AED4009A009A009A009A009A009A009A009A009E
:10AEE4009A009A009A009A009A009A009A009A008E
:10AEF4009A009A009A009A009A009A009A009A007E
:10AF04009C009A009A009A009A009A009A009A006B
:10AF14009A009A009A009A009A009A009A009A005D
:10AF24009A009A009A009A009A009A009A009A004D
:10AF34009A009A009A009A009A009A009A009A003D
:10AF44009A009A009A009A009A009A009A009A002D
:10AF54009A009A009A009A009A009A009A009A001D
:10AF64009A009A009A000A019A009A009A009A009C
:10AF74009A009A009A009A009A009A00A100470148
:10AF84009A009A009A009A0047019A009A009A003F
:10AF94009A00BA003401F3009A009A00CD009A0096
:10AFA40040019A009A000C01671C207845F00105C5
:10AFB4007CE745F00105C14B1F68002F00F0C581F7
:10AFC40003AB0193009133462A464146B8472746CE
:10AFD400F0E12078682803D0671C45F0040565E794
:10AFE40045F00805A71C607860E73C46E3E72521A7
:10AFF4004046FFF7F4FCDDE1039B1A1D03921C7825
:10B00400013E424631462846FFF711FD214640469F
:10B01400FFF7E5FCA94619F0100F00F0CB8142467A
:10B0240031462020FFF7F5FCC4E115F0080F07D0E6
:10B03400D8F80020039B191D03911B681A70B9E10D
:10B04400039B1A1D03921B68D8F800201A60B1E113
:10B05400039B1A1D03921868994B002808BF1846D1
:10B06400044625F4007915F4807F13D0FFF748FDDA
:10B074000546761B424631464846FFF7D8FC002D6C
:10B08400C9D0254414F8011B4046FFF7A8FCA5428B
:10B09400F8D1C0E7FFF7D0FD0546EAE7039B1A1D88
:10B0A40003921B6805F08002002A0CBF00242324AD
:10B0B40045F480750821002B00F02D814FF0000924
:10B0C40005F4005005AA8E46D4E045F4005515F069
:10B0D400800F22D043F2780443F25803782818BF33
:10B0E4001C4615F4807F01D025F4007515F4804FBB
:10B0F40036D0039B1A1D03921B6815F0040F27D04A
:10B104001BB2002B29DB15F0200F40F0868005F0E0
:10B114004002002A18BF20242AE00024E1E705F0B9
:10B124008003002B0CBF0024302415F4807FDDD075
:10B1340025F40075DAE715F4807F07D025F400754F
:10B144000024D3E745F480450024CFE70024CDE76D
:10B1540015F0080F18BFDBB2D3E75B422D2407E0DC
:10B16400039B1A1D03921B6815F0040F50D09BB269
:10B1740015F4807F14BF25F4007501215838202868
:10B1840000F2C68001A252F820F000BFBBB002005A
:10B1940015B3020015B3020015B3020015B3020083
:10B1A40015B3020015B3020015B3020015B3020073
:10B1B40015B3020015B3020015B3020045B2020034
:10B1C40015B3020015B3020015B3020015B3020053
:10B1D40045B2020015B3020015B3020015B3020014
:10B1E40015B3020015B3020023B20200BBB0020083
:10B1F40015B3020015B3020015B3020015B3020023
:10B2040045B2020015B3020015B30200BBB0020040
:10B2140015F0080FACD0DBB2AAE72B24A8E763B182
:10B2240005A84FF0000903F00702303200F8012BA3
:10B2340009F10109DB08F6D127E04FF0000924E009
:10B2440053B14FF0000905F4004C4FF02C0E9B460F
:10B2540063468C4619464CE04FF0000915E003F0B4
:10B264000F0C184911F80CC009F802C009F10109C2
:10B274001B0909D00028F2D003F00F0C124911F871
:10B284000CC009F802C0F1E77146A1EB090B2BEAE7
:10B29400EB7BA6EB0B06A6EB0906FF2C88BF06F199
:10B2A400FF36002C66D0013E15F4007F36D0FF2C0B
:10B2B4003ED8E1B24046FFF792FB5EE0887400207E
:10B2C400FCC30200DCC30200ECC30200CDCCCCCC36
:10B2D40008AB03EB0900AAFB0B32D20802EB820392
:10B2E400ABEB4303303300F80C3C09F101099346FE
:10B2F40062B10029ECD009F00303032BE8D108ABB9
:10B304004B4403F80CEC09F10109E1E76146BCE7A1
:10B314004FF00009B9E74FF00009B6E7424631465D
:10B324002846FFF784FBFF2C01D8002605E0002601
:10B33400C4F307214046FFF752FBF4B1B9E7424694
:10B3440031462020FFF765FB34E0274632E0D8F889
:10B3540008303BB1D8F80020D8F804108A423CBF2A
:10B3640000219954D8F8000009B0BDE8F08F4FF0DF
:10B37400FF30F9E715F4007FD0D042463146284625
:10B38400FFF755FB424659463020FFF742FBB9F11F
:10B39400010F0CD408AB9944A9F10D090DF1130464
:10B3A40019F801194046FFF71AFB4C45F8D115F07E
:10B3B400100FC4D17E1C39780029C8D025293FF448
:0CB3C40078AC4046FFF70BFB3746F3E780
:08B3D0009D8002000000000056
:10B3D80021A002000000000035A20200806E0020BB
:10B3E800819E02000000000063A40200006F00209C
:10B3F80063A402000C6F002063A40200186F0020F1
:10B4080063A40200246F002007A50200DC6E002060
:08B41800FD910200000000009C
:10B420005CBB02000000000062BB020000000000E4
:10B4300069BB0200000000006DBB020000000000BC
:10B4400072BB02000000000029B5020000000303E7
:10B450002DB502000000000356BB020000000000F2
:10B4600003BF02000000030338BF02000000030313
:10B4700078C102000000030390C102000000030332
:08B4800054B6020000000000B8
:10B48800F4660020BC670020C4670020FC6600202A
:08B498003866002018000000D6
:08B4A000198102000000000008
:10B4A800D1A60200000000000DA902000000000063
:10B4B8000000000000000000000000000000000084
:10B4C8000000000000000000000000000000000074
:10B4D8000000000000000000000000000000000064
:04B4E8000000000060
:10B4EC00FFFFFFFFFFFFFFFFFFFFFFFFFFFFFFFF60
:10B4FC0000000000000000000000D6010701000061
:10B50C001D64020081640200CD6302004261636B22
:10B51C00656E647320666C75736865640061707029
:10B52C000062616C6C6F632E6C6F675F6D656D7024
:10B53C006F6F6C0073B50200BCB502007BB50200E6
:10B54C00C4B50200CCB50200D4B50200DCB50200D3
:10B55C00E4B50200ECB50200202530327800202042
:10B56C0020007C002563001B5B306D002573001BE5
:10B57C005B313B33316D0025734C6F677320647204
:10B58C006F70706564202825642925730D0A003CB2
:10B59C0025733E2025733A200000000000000000B7
:10B5AC0012B60200F4B50200FCB5020001B60200AE
:10B5BC001B5B313B33306D001B5B313B33326D0019
:10B5CC001B5B313B33336D001B5B313B33346D0004
:10B5DC001B5B313B33356D001B5B313B33366D00F0
:10B5EC001B5B313B33376D007761726E696E6700A0
:10B5FC00696E666F0064656275670000F06B002011
:10B60C00466174616C206572726F72005379737449
:10B61C00656D207265736574000000000000000009
:10B62C00000000000338FDD8704730313233343518
:10B63C0036373839414243444546000020B40200B5
:10B64C0020B40200040000007077725F6D676D74A7
:10B65C0000556E6B6E6F776E206572726F72206321
:10B66C006F6465000000000098B702000100000044
:10B67C00A4B7020002000000C2B7020003000000E1
:10B68C00E3B7020004000000F6B70200050000005A
:10B69C0007B80200060000001BB8020007000000FB
:10B6AC0033B80200080000004BB80200090000008B
:10B6BC0063B802000A0000007CB802000B00000016
:10B6CC0094B802000C000000ABB802000D000000A2
:10B6DC00BFB802000E000000D1B802000F0000003D
:10B6EC00E0B8020010000000F4B8020011000000E5
:10B6FC000BB90200120000001AB90200130000007E
:10B70C002FB902008000000043B902008100000044
:10B71C0064B902008200000080B9020083000000BE
:10B72C009CB9020084000000BAB902008500000038
:10B73C00DBB902008600000000BA02009000000095
:10B74C0017BA02009100000035BA02009200000006
:10B75C0053BA02000082000068BA020001820000A5
:10B76C0086BA020002820000A2BA02000084000025
:10B77C00BEBA020001840000E2BA0200028400009A
:10B78C000CBB02000384000031BB02004E52465F2A
:10B79C0053554343455353004E52465F4552524F07
:10B7AC00525F5356435F48414E444C45525F4D499E
:10B7BC005353494E47004E52465F4552524F525FCB
:10B7CC00534F46544445564943455F4E4F545F458D
:10B7DC004E41424C4544004E52465F4552524F52E8
:10B7EC005F494E5445524E414C004E52465F4552B5
:10B7FC00524F525F4E4F5F4D454D004E52465F4586
:10B80C0052524F525F4E4F545F464F554E44004E6E
:10B81C0052465F4552524F525F4E4F545F535550F4
:10B82C00504F52544544004E52465F4552524F526F
:10B83C005F494E56414C49445F504152414D004E78
:10B84C0052465F4552524F525F494E56414C494405
:10B85C005F5354415445004E52465F4552524F522D
:10B86C005F494E56414C49445F4C454E4754480045
:10B87C004E52465F4552524F525F494E56414C49CB
:10B88C00445F464C414753004E52465F4552524F1F
:10B89C00525F494E56414C49445F44415441004E1D
:10B8AC0052465F4552524F525F444154415F534997
:10B8BC005A45004E52465F4552524F525F54494DC5
:10B8CC00454F5554004E52465F4552524F525F4EB3
:10B8DC00554C4C004E52465F4552524F525F464FAC
:10B8EC005242494444454E004E52465F4552524FD7
:10B8FC00525F494E56414C49445F41444452004EBC
:10B90C0052465F4552524F525F42555359004E5268
:10B91C00465F4552524F525F434F4E4E5F434F5519
:10B92C004E54004E52465F4552524F525F52455351
:10B93C004F5552434553004E52465F4552524F525B
:10B94C005F4D4F44554C455F4E4F545F494E4954E3
:10B95C0049414C495A4544004E52465F4552524F5C
:10B96C00525F4D555445585F494E49545F464149C5
:10B97C004C4544004E52465F4552524F525F4D5516
:10B98C005445585F4C4F434B5F4641494C4544002E
:10B99C004E52465F4552524F525F4D555445585F7B
:10B9AC00554E4C4F434B5F4641494C4544004E521B
:10B9BC00465F4552524F525F4D555445585F434F69
:10B9CC004E445F494E49545F4641494C4544004EF4
:10B9DC0052465F4552524F525F4D4F44554C455F56
:10B9EC00414C52454144595F494E495449414C4997
:10B9FC005A4544004E52465F4552524F525F535483
:10BA0C004F524147455F46554C4C004E52465F45A0
:10BA1C0052524F525F4150495F4E4F545F494D5007
:10BA2C004C454D454E544544004E52465F4552528E
:10BA3C004F525F464541545552455F4E4F545F45FA
:10BA4C004E41424C4544004E52465F4552524F5275
:10BA5C005F494F5F50454E44494E47004E52465F3A
:10BA6C004552524F525F4452565F5457495F4552AC
:10BA7C00525F4F56455252554E004E52465F4552FC
:10BA8C00524F525F4452565F5457495F4552525F72
:10BA9C00414E41434B004E52465F4552524F525F0E
:10BAAC004452565F5457495F4552525F444E41438E
:10BABC004B004E52465F4552524F525F424C455FCF
