:020000022000DC
:10600000000001203D6202009562020097620200DA
:10601000996202009B6202009D6202000000000083
:106020000000000000000000000000009F6202006D
:10603000A162020000000000A3620200A56202004B
:10604000B1800200AB62020089850200AF620200EB
:10605000B1620200B36202000D840200B762020066
:10606000B9620200BB620200BD620200BF620200B0
:10607000C1620200C3620200C5620200C762020080
:10608000C9620200D16E0200CD620200CF6202003E
:106090006D6F0200D3620200D1AB0200D762020032
:1060A000D9620200DB620200DD620200DF620200F0
:1060B000E1620200E3620200A7620200A76202003E
:1060C000E5620200E7620200E9620200EB620200A0
:0C60D000ED620200EF620200F1620200CB
:1060DC00364937480A1A02D0072291438D46354972
:1060EC0035480A1A06D00722914381F30988022207
:1060FC0082F3148831483249324A00F045F832486C
:10610C003249334A00F040F832483349334A00F000
:10611C003BF833483349344A00F036F833483449B5
:10612C00344A00F031F834483449354A00F02CF840
:10613C0034483549354A00F027F8354835490022AE
:10614C0000F02DF834483549002200F028F8344886
:10615C003449091A082903DB00220260043001606B
:10616C00314A90471F482049884205D002680430C4
:10617C0003B4904703BCF7E700208646EC460020AA
:10618C0000212A4A9047FEE7884207D0521A05D0D0
:10619C00037801300B700131013AF9D17047884214
:1061AC0002D002700130FAE77047000000000120B5
:1061BC0000E00020000001200000012094C5020036
:1061CC00A437002004380020F4620200F4620200BC
:1061DC0008B1020094C50200A4370020A4370020A7
:1061EC0024B2020024B2020024B2020024B2020043
:1061FC0024B2020024B2020024B2020024B2020033
:10620C0094C50200F4C502000438002004380020B4
:10621C00043800207C4400207C4400207C44002076
:10622C007C4400207C6400206162020065900200C6
:10623C000F484FF00701884385460E4880470E48AB
:10624C00016841F470010160BFF34F8FBFF36F8F92
:10625C00FFF73EBF09480A490A4A884207D0521A3A
:10626C0005D0037801300B700131013AF9D1704738
:10627C0000000120757B020088ED00E0F0B1020007
:10628C0070370020A4370020FEE7FEE7FEE7FEE7AC
:10629C00FEE7FEE7FEE7FEE7FEE7FEE7FEE7FEE7CA
:1062AC00FEE7FEE7FEE7FEE7FEE7FEE7FEE7FEE7BA
:1062BC00FEE7FEE7FEE7FEE7FEE7FEE7FEE7FEE7AA
:1062CC00FEE7FEE7FEE7FEE7FEE7FEE7FEE7FEE79A
:1062DC00FEE7FEE7FEE7FEE7FEE7FEE7FEE7FEE78A
:0862EC00FEE7FEE7FEE700BF3C
:1062F4007047000007B5044B0093044A402300F0A4
:1063040032F803B05DF804FB156302000538002081
:106314002DE9F84389461446B2B10F4B0F4E0325BD
:10632400002743F00108224609EB0701002003F08F
:10633400C3FC0744241A48B933782BB14FF47A408C
:10634400C047013D02D13570BDE8F88301233370A5
:10635400002CE8D1F8E700BF30B202000438002076
:10636400704703F0DDBCF0B595B01C4616460846F0
:106374000D4601F0E1FA1A9B0D93CDE9086400245F
:106384002346082205A928460A948DF82C400C942B
:1063940001F00EFB079B0293BDF81830ADF80C30EA
:1063A400BDF81A30ADF80E309DF814308DF8114058
:1063B40003F00302012A1DD1BDF81440059EC3F366
:1063C400C203C4F383148DF81030A20008230EA96D
:1063D400284601F0EDFAC6F3952608AB0093224651
:1063E40002AB0EA9304600F0F5FB284601F0A8FAEE
:1063F40015B0F0BD022AF8D1BDF81640C3F3C203AC
:10640400A4098DF810300827082C264628BF082632
:106414003B4632460EA9284601F0CAFAA41B08AB33
:1064240002AA31460EA8374400F038FC002CEBD108
:10643400DBE70000014B01221A7070478638002008
:106444007047000070B50E4D06460FCD88B06C46FF
:106454000FC495E80F0084E80F0008A9002E4FF040
:106464000603084A41F8203D08BF0022064801F00F
:10647400A7FD08B100F07EFC044B1E7008B070BD8F
:1064840044B2020039640200A437002045380020D9
:1064940007B5044B0093044A4023FFF764FF03B09D
:1064A4005DF804FBB16402004638002038B50D4B9A
:1064B4000D4D002018700D4804782D5DD2B21C4695
:1064C40065B1043002F096FC08B100F053FC084BAF
:1064D4001A7812B12378002BFBD038BD0C3002F0AF
:1064E40083FAF1E786380020E03E0020A43700203C
:1064F4004538002008B50848084A0378D35C3BB106
:10650400043002F013FC0020BDE80840FFF79ABFF6
:106514000C3002F005FAF6E7A4370020E03E002034
:106524000120FFF78FBF000038B5094CFFF719FFB2
:1065340001250421204600F0BDFA6572054CFFF7E1
:10654400EFFF0421204600F0B5FA657238BD00BFA4
:10655400B8370020C4370020037813F0030F03F08A
:10656400040202D012B910467047B2B103F003031B
:10657400012B03D0022B09D0012070470A68008840
:106584000232C0F3831002440A60F5E70B684288C4
:10659400023303EB92130B60EEE70B68428801337E
:1065A40003EB92130288F4E72DE9F04F89B0054616
:1065B400861C08A8484C019200230F4600F8113DA0
:1065C40000F0BEFE23683B60D4E901231344226833
:1065D40001339B1A04F21C4704F5836A04F214483D
:1065E400B3421AD3019A0023002A6DD0012262F328
:1065F400010343F0040365F389132168A2689DF83D
:106604000F000A4003320E4444F82230266000F0A2
:10661400BBFE012009B0BDE8F08F0121384600F02F
:1066240010FF504600F023FF404600F020FF0DF11C
:1066340020096068D4F808B049F8100D00EA0B008E
:10664400033004EB80004946FFF786FF049BB0B992
:106654000BEA030204EB8202D16805919A1C013310
:1066640003EA0B0B04EB8B0C01F00303012B0492E4
:10667400DCF80CB020D0022B04D083460BE00BEAEC
:106684000300DDE7BDF816309B0903334FEA1B4BCB
:1066940002EB93030493404600F0ECFE08B1049B24
:1066A40063605946384600F0CCFED4E90123134414
:1066B400226801339B1A93E7BDF81430C3F38313A4
:1066C4004FEA1B4B1344E5E7022262F3010343F054
:1066D400040365F39F5390E75839002008B50E4B27
:1066E4000E48FF229A600022C3F81824C3E900224E
:1066F400C3F8142483F8202401F0D7F838B9084AE1
:10670400084B09499B1ADB0802469A4200D108BD8E
:1067140021F822200132F8E758390020C0B10200E4
:1067240058B10200C0B102007037002030B50B4CE4
:1067340079B10B4A0B49121BD20800239A4201D1AA
:10674400002030BD01EB83056D88854202D0013302
:10675400F4E7034654F83300F3E700BF58B10200EE
:10676400C0B1020070370020094B013903EBC000AF
:10677400032909D8DFE801F00A020406042070475F
:1067840000797047407970470020704702207047B5
:1067940058B10200034BD3E90030C31A58425841A0
:1067A400704700BF583900202DE9F04387B0FFF748
:1067B400F1FF0746002840F0F5807B4DC5F818042A
:1067C400BFF34F8F6868AC680DF1180848F8100DD6
:1067D4002040033005EB80004146FFF7BDFE029BDD
:1067E400064600285FD104EA0302991C013305EB35
:1067F4008202234005EB8303D268DB68049302F032
:106804000303022B0392029162D1BDF80E30674854
:106814004FEA9318B8F1500FC14628BF4FF0500902
:1068240069F38F1309F10801ADF80E3001F055F842
:106834000746002800F0A48001F07EF8334603A93F
:106844000822384601F08BF8029924EA0106013641
:10685400B600B14535D95FFA89F97EB3F6B2A9EB32
:106864000609214003315FFA89F4B146504E05EB25
:10687400810108234A46384601F071F836B109F11E
:10688400080322463146384601F069F8029B08F1B4
:10689400030803EB98030293D5F81834002B4AD16C
:1068A400D5F8104458E02A689A4204D86A603846F9
:1068B40007B0BDE8F08304EA03008AE73C493446A4
:1068C400D7E72140033108234A4605EB8101DAE783
:1068D400012B55D1BDF80C303448C3F3831106297C
:1068E40028BF062161F3891302318900ADF80C3009
:1068F40000F0F3FF0746002842D001F01DF83346AC
:10690400082203A9384601F02AF8BDF80C20C2F386
:106914008312B31C96424FEA8303BDD202994A1CE8
:1069240021400331029205EB81010422384601F033
:1069340016F80136E9E7384601F002F8FFF72AFFB6
:1069440080F00100C7B2B2E7637A23B12368394605
:106954001B68204698476468002CF5D1384600F03F
:10696400EFFF06A800F8114D00F0EAFCD5F8183442
:106974000BB9029B6B609DF8070000F005FDDDE795
:10698400D5F8104444B90B4B0B491888000440F067
:10699400020000F06BF8D1E7236820469B68984713
:1069A4006468EFE7002782E758390020C0B102008D
:1069B400643900208437002070B202002DE9F74FBB
:1069C400284C80460F46924601A9012218469B4650
:1069D400D4F80890FFF7E8FD88B3019D0026A91CB0
:1069E4005E4506EB010234D100211F4800F0FEFC95
:1069F40080F310006A1C02EA090204EB820200041C
:106A040005EA0903033340EA1840D06014F8232050
:106A140068F3C50204F8232034F8232066F38912AE
:106A240024F8232054F82320012167F39F2244F8FB
:106A3400232061F301026FF3820204F8232094F807
:106A440020341BB1FFF7B0FE0028FBD103B0BDE832
:106A5400F08F09EA020204EB82025AF82630D3606E
:106A64000136BDE758390020743D002000231A4642
:106A7400FFF7A4BF13B502AC012344F8042D22464A
:106A8400FFF79CFF02B010BD07B5CDE90023022338
:106A94006A46FFF793FF03B05DF804FB1FB5CDE929
:106AA4000123069B039301AA0323FFF787FF05B085
:106AB4005DF804FB0F4A30B5D2F810440023214698
:106AC40041B90372D2F810444CB9C2F810044160C1
:106AD400184630BD0D7A9D4205D04968F0E76268DA
:106AE40042606060F4E701330A2BE8D14FF0FF33D2
:106AF400EEE700BF58390020084A38B50123D2F820
:106B0400104482F820341D4604B938BD23686572E8
:106B140020465B6898476468F6E700BF5839002050
:106B2400037A052B10B50C460FD0437A23B1084ADB
:106B34000849204600F0FFFC0749204600F0FBFC12
:106B44002046BDE8104000F0EBBC002AF8D0F3E783
:106B5400CBB20200D4BB0200EDB20200C38873B50D
:106B640004460D4633B1144A00921449144A284687
:106B740000F0E1FC217A05291CD0637A4BB1A0888E
:106B8400FFF7F2FD0F4B104953F82020284600F080
:106B9400D2FC227A0D4BA08853F822600021FFF723
:106BA400C5FD0B4903463246284602B0BDE8704095
:106BB40000F0C1BC02B070BDCBB20200D8B202007A
:106BC400D0B2020098B20200D4BB0200FCB20200B0
:106BD400F0B202002DE9F04385B01F460C9D00235E
:106BE40006460C46904695F80C902B732946384679
:106BF400FFF7B4FFB8F1060F09D8DFE808F0041274
:106C0400181F283340003146284600F094FC002227
:106C140029463846FFF784FF85F80C9005B0BDE897
:106C2400F08322683146284600F085FCEFE7D4E97A
:106C340000233146284600F07EFCE8E7A368009371
:106C44003146D4E90023284600F075FCDFE7E36809
:106C54000193A36800933146D4E90023284600F049
:106C64006AFCD4E723690293E3680193A368009361
:106C74003146D4E90023284600F05DFCC7E7636988
:106C8400039323690293E3680193A3680093314655
:106C9400D4E90023284600F04EFCB8E708292DE982
:106CA400F84F80460E4617461C4636D8002593F802
:106CB4000C901D7319461046FFF750FFDFF87CA0B7
:106CC400DFF87CB0AE422AD918F805205946204690
:106CD40000F031FC0135082DF4D11649DFF864B019
:106CE400204600F028FC0025AE421DD918F805A066
:106CF400504604F007F9002814BF52462E22594684
:106D0400204600F018FC0135082DEDD10122214662
:106D14003846FFF705FF84F80C90BDE8F88F51461C
:106D2400204600F008FCD5E70349204600F003FCA8
:106D3400E9E700BFC6B20200C4B20200C2B2020058
:106D4400BCB20200C8B2020070B5084D084E00245F
:106D54002B789C4201D3002070BD3368012113F8C5
:106D6400340001F00BFB0134F2E700BF7C3D00204E
:106D7400803D00201FB50021039001AA44F20100C8
:106D8400CDE9011100F004F805B05DF804FB000042
:106D940010B572B6FFF7B0FEFFF706FD0028FBD171
:106DA400104C11492088000440F00100FFF75EFEFA
:106DB4000E4B1B68DB0700D500BE20880C4900047D
:106DC40040F00200FFF752FEBFF34F8F09490A4B10
:106DD400CA6802F4E0621343CB60BFF34F8F00BF75
:106DE400FDE700BF843700205BB30200F0ED00E054
:106DF40067B3020000ED00E00400FA05094A537885
:106E040091780133DBB2994208BF0023117899428B
:106E14001FBF03705078182303FB002014BF0430F5
:106E240000207047843D002073B5054602A8002465
:106E340000F8014D0E4600F083FA0DF10600FFF74D
:106E4400DDFF90B106700A4B9DF8062045605A702C
:106E54009DF8070000F098FA24B9064B4FF480120D
:106E6400C3F80021204602B070BD0424F0E700BF3F
:106E7400843D002000E100E0024B4FF43C6043F00D
:106E84000103184780B3020038B50C4B0C4C4FF487
:106E94000032C3F8802001254FF48033C4F848330E
:106EA400C4F808336560FFF7E7FF064BA5600024CC
:106EB4001C60FFF7E1FF044B1C7038BD00E100E0EB
:106EC40000100140A03E0020913E0020F8B51F4B69
:106ED4001F491B680025C1F84051C1F84451C1F84D
:106EE4004851C1F84C51C1F80051C1F804514BB399
:106EF400D1F8044517490968641A24F07F442F46E1
:106F04001A68A24209D8A41A15441A7CDE691AB177
:106F14001F74D3E905209047AEB90F4B0F4A197877
:106F240013788B4205D10133DBB2022B08BF002357
:106F3400137012780A4B43F822500A4B4FF4801214
:106F4400C3F80021F8BD3346DAE700BFA43E0020B1
:106F540000100140A03E00209C3E00209D3E0020E9
:106F6400943E002000E100E02DE9F74F9E4A9F493E
:106F7400137809789E4D99423CD00133DBB2022B41
:106F840008BF002313709B4912789B4B0F6853F87A
:106F940022003B1823F07F4300220B602B68164627
:106FA4001446944613B942B12B6006E01968814235
:106FB4000ED902B12B60091A19604FF001082B6831
:106FC400DFF83CA200930027BEB9DFF83CB260E0D2
:106FD400401A0C44D968C3F800C0D3F81CE031B19E
:106FE4003A1922F07F42C3E90121DE611E460122E3
:106FF4007346D7E70026B046E1E73446F6697D4A92
:1070040063681268DFF804C2A068991A21F07F410E
:10701400614500F2A58001442160012222742A689E
:107024000023C4E90133E361002A40F0A2802C600C
:10703400CAE75A1C9BF80210D2B291428BF8002086
:1070440004BF00228BF80020182202FB03B32A6835
:1070540019799C68022974D003297ED0012918D19A
:10706400217CB1B9DA6862601A69A2605A699B69C5
:10707400A361624BE2601B78002BC0D06160BEE765
:107084009C4200F093809946DB69002BF8D10023E1
:1070940023749BF800309BF801209A42C9D12B68D5
:1070A4002FB9009A934202D1B8F1000F43D0002BBC
:1070B40079D0D3F800A0524D4E4BD5F804751C6816
:1070C400DFF84C813E1B98F8003026F07F460336EB
:1070D4009BB94FF48033C5F84433C5F80433494BA6
:1070E4004FF400324FF00109C3F880211A60C5F84B
:1070F4000090FFF7C1FE88F80090B2452CBF5444BD
:10710400A41924F07F44C5F84045D5F80435DB1BA9
:1071140023F07F43E41B033324F07F44A3420AD9C2
:10712400D5F80435C5F84035FFF7A6FE354B4FF4C6
:107134000032C3F80021314B00221A7003B0BDE8BD
:10714400F08F13469146A0E71174D2690123002AF7
:10715400FAD1002B9DD02A609BE700231946F6E75D
:10716400D31A23F07F43834234BFC31A002323601E
:1071740053E721681368994213D8591A1160E261E0
:1071840055E7091AD8691A4638B10346186888427F
:10719400F7D3401A1860184613462160E061DC6199
:1071A40012E71346F2E7FFF76FFEC4E74C450DD133
:1071B400D3692B6053B90F4801920121CAF8081012
:1071C40003600E4B1970FFF757FE019AE1692368BB
:1071D400C9F81C1011B1086803440B602B689A426B
:1071E40018BF012753E700BF9C3E00209D3E0020AE
:1071F400A43E0020A03E0020943E0020903E0020AB
:107204000010014000E100E0843D0020FEFF7F000B
:10721400913E002008B5FFF737FE104B00200B22EB
:1072240018809A700E4B18600E4B18700E4B187025
:107234000E4B4FF48012E021C3F8802183F814131D
:107244001A6002F18042A2F56F22C2F8080583F8A1
:107254001113074BD2F804251A6008BD843D0020A1
:10726400A43E00209C3E00209D3E002000E100E062
:10727400A03E0020074B9B784BB132B128B1036884
:10728400187C20B959745A61704707207047082048
:10729400704700BF843D00202DE9F7431D4FBB78A4
:1072A40005460E4690469BB390B304292ED94369F4
:1072B40073B3437C02A80024012B00F8014D0CBFDA
:1072C4008946A14600F03CF80DF10600FFF796FD53
:1072D400D0B101230370104B4560D3F80435C0E9E5
:1072E4000498C0E902369DF806307B709DF80700CB
:1072F40000F04AF824B9094B4FF48012C3F8002176
:10730400204603B0BDE8F0830424EFE70724F7E741
:107314000824F5E7843D00200010014000E100E06E
:10732400064A92783AB130B1426922B1002202741D
:107334000221FFF779BD0820704700BF843D00207B
:1073440070B5EFF3108672B60C4A946801239CB9A9
:1073540093600B4B0B4DD3F8801029401160C3F898
:107364008050D3F8841051604FF0FF32C3F884206A
:10737400047006B962B670BD0370FAE7A83E002037
:1073840000E100E0FC06FFBD084B9A6810B55AB155
:1073940050B9EFF3108172B6054A1C6814605C683A
:1073A4005460986001B962B610BD00BFA83E0020C9
:1073B40000E100E001F01F024B090121914000EBC4
:1073C400830000F01DB801F01F0301229A404B090D
:1073D40000EB8300D14300F029B84B0901F01F01F1
:1073E40050F82300C84000F00100704750E8002F17
:1073F4000B4640E8003C9CF0000FF7D11046704764
:1074040050E8003F43EA010240E8002C9CF0000FE2
:10741400F6D11046704750E8002F02EA010340E815
:10742400003C9CF0000FF6D11046704750E8003F36
:1074340003EA010240E8002C9CF0000FF6D110464C
:10744400704750E8003F03EB010240E8002C9CF039
:10745400000FF6D11046704750E8003FA3EB01023D
:1074640040E8002C9CF0000FF6D110467047012133
:10747400FFF7C6BF0021FFF7CEBF10B590B1D0E92A
:10748400012301689B1ADBB20A60013BDBB2FF2BCC
:10749400026802D10020107110BD11684C1C1460E8
:1074A4000B70F2E70E20F7E737B5054602A8002473
:1074B40000F8014DFFF744FF2A686B681168994290
:1074C4000ED9481E106011F8014CEB68A98A01FB23
:1074D4000434AB6811791B1ADBB2994238BF1371BB
:1074E4009DF80700FFF750FF204603B030BD37B5C5
:1074F400054602A8002300F8013D0C46FFF720FFD3
:107504002A681368591C1160E968641AA98AB4FBD3
:10751400F1F41C709DF80700FFF736FF03B030BD8F
:10752400826810B504462AB1436901680069984726
:107534000023A36010BD0EB403B5039929B102AAB8
:1075440004AB42F8043D00F06BF802B05DF804EBC4
:1075540003B07047826830B40468551C8560A15438
:10756400D0E901329A4202D330BCFFF7D9BF30BC14
:10757400704700002DE9F84F9946DDE90A431746A4
:10758400824688460A460126BA420FD24E4538BF83
:107594004E4613F0010B01D164B900240125B9F161
:1075A400010F1AD909F1FF397D43F8E7B2FBF7F26D
:1075B4000136E9E79B070ED5B9F1000F0CBF302562
:1075C4002025A642EAD2013C29465046FFF7C2FFD5
:1075D400002CF6D1E1E72025F3E7B8FBF5F39F4251
:1075E400E2D9DFF83890B8FBF5F3504619F80310E8
:1075F40005FB1388FFF7AEFFB5FBF7F5002DF2D1BD
:10760400BBF1000F02D00CB1A64201D3BDE8F88F44
:1076140020215046013CFFF79DFFF4E786B30200AA
:107624002DE9F74F054690460E46002900F03A81B1
:1076340016F8011B002958D0252940F0D1800027D5
:1076440002E047F001071646324612F8013B2D2BA3
:10765400F7D0302B04D02B2B05D147F00407F2E7E9
:1076640047F00207EFE700242A2B06F101021BD1A1
:10767400D8F80030191D1B68C8F800101C441646C1
:1076840033782E2B1CD101364FF0000A314611F805
:10769400012BA2F13000092814D80A2303FB0A2382
:1076A400A3F1300A0E46F1E712F8013CA3F13001D0
:1076B4000929E5D80A2101FB0434303C1646D3E7F6
:1076C4004FF0000A324612F8011B01F0FB00682853
:1076D4001646F8D0692916D054D8582970D00ED837
:1076E40025297DD03378002BA2D12B7B002B00F0F1
:1076F400D980284603B0BDE8F04FFFF711BF6329D6
:1077040068D06429EED1D8F80020D2F80090111D79
:1077140089EAE972C8F80010A2EBE9724FF0010B94
:10772400092A61DCD34538BFD3462CB1B9F1000F27
:1077340001DB790700D5013CBA0702D5BAF1000F85
:1077440004D0FB0702D4002C54D10024B9F1000F5B
:1077540058DAC9F100092D212846FFF7FBFE07F08E
:107764000302022A05D1BAF1000F02D1002C4DD137
:107774000024CDE9004753460A2249462846FFF72C
:10778400F9FEAFE7732954D016D87029AAD1D8F8D6
:1077940000301A1DC8F80020302128461C68FFF765
:1077A400D9FE78212846FFF7D5FE00220823CDE92B
:1077B400003221461022E1E775292FD0782991D192
:1077C400D8F800100A1DC8F80020CDE90047534638
:1077D40010222CE0D8F800301A1D1978C8F80020BF
:1077E4002846FFF7B7FE7DE70A230BF1010B92FB56
:1077F400F3F295E7A345A9D220212846013CFFF7DF
:10780400A9FEA0E77807AAD52B21A5E7A345B0D206
:1078140030212846013CFFF79DFEA7E7D8F8001069
:10782400CDE900470A1DC8F8002053460A2209681A
:10783400A4E7D8F800301A1DC8F80020F907D3F8D7
:10784400009012D54F46A7EB090B17F8011B41B95D
:10785400A345BFF447AF20212846013CFFF77AFE39
:10786400F6E72846FFF776FEEDE7B9F1000F17D0EB
:10787400484603F015FC0746BC4200D954B909F147
:10788400FF3919F8011F00293FF42CAF2846FFF7F0
:1078940061FEF6E720212846013CFFF75BFEEBE79B
:1078A4004F46E9E703B0BDE8F08FFFF7E6BDF8B552
:1078B40046790146721E0546002393422D6803D380
:1078C4000024A64202D8F8BD0133F6E70F68284623
:1078D400FFF70DFE01343946F3E72DE9F843868AB4
:1078E400CD1C0746FFF7E0FD043E35440446B5FBD6
:1078F400F6F5F0B14FF48073EDB28380C680013D9C
:10790400076081464FF00008A84512D23846FFF7B9
:10791400CBFD064648B163790133637108F1010870
:10792400C9F8000007608146EEE72046FFF7BFFF75
:1079340034462046BDE8F88301210430FFF781BDB9
:1079440010B5012104460430FFF786FD10F0FF0F47
:1079540004D12046BDE81040FFF7A9BF10BD2DE9B2
:10796400F843C7880546181D8846B0FBF7F4164649
:1079740007FB14003CB9A7EB0009B14528BFB14689
:1079840026B9BDE8F8832D68013CF3E70430A6EB83
:1079940009064A4608EB0401284403F003FBB742F6
:1079A4004C442D68B9464FF0000028BFB146E7E7C4
:1079B4002DE9F843C7888846191D0546B1FBF7F43D
:1079C400164607FB14113CB9A7EB0109B14528BFC2
:1079D400B14626B9BDE8F8832D68013CF3E70431CC
:1079E4002944A6EB09064A4608EB040003F0DAFA38
:1079F400B7424C442D68B9464FF0000128BFB14648
:107A0400E7E741DF70470000064B10B500241C7007
:107A1400054B1C60BFF35F8F0449054800F030F844
:107A2400204610BDBC3E0020C03E002098B302009A
:107A3400B43E002007B502A8002300F8013DFFF77B
:107A44007FFCF1EE103A23F09F03E1EE103ABFF30E
:107A54005F8F0A4B4022C3F884219DF80700FFF78B
:107A640093FC03F099F820B1FFF7CBFF03B05DF866
:107A740004FB20BF40BF20BFF8E700BF00E100E0E7
:107A84000B684A684360934208BF0023016008BF43
:107A940043607047436843B10268916852680B447D
:107AA4009342436004BF0023436070470D4930B5DF
:107AB400A1F594720225914201D800200EE08B1AA0
:107AC400DB1093FBF5F302EBC30452F8333083422B
:107AD40005D802D204F10802EDE7606830BD214602
:107AE400E9E700BFE8B4020008B5FFF7DFFF024B87
:107AF400002808BF184608BDADB302000C4B1B7824
:107B0400062B10D10B4B1B681A070CD10A4B1868B3
:107B140000F0F003302B08D000F0E000A0F14003A7
:107B2400584258417047002070470120704700BFF9
:107B3400E00F00F0E40F00F0E80F00F0094B1B78B1
:107B4400062B0CD1084B1B681A0708D1074B186881
:107B540000F0F000A0F13003584258417047002073
:107B6400704700BFE00F00F0E40F00F0E80F00F0F2
:107B740008B5FFF7C3FF28B17D4B7E4A1B68C3F3EA
:107B840004231360FFF7DAFF10B17B4B7B4A1A60C2
:107B9400FFF7B4FF28B17A4B7A4A1B68C3F3423328
:107BA4001360FFF7CBFF20B1774AD36823F08073CB
:107BB400D360FFF7A3FF40B14FF080430022C3F826
:107BC4000C21C3F81021C3F83825FFF7B7FF10B113
:107BD4006E4B03221A60FFF7B1FF40B16C4B0522D4
:107BE4001A6001229A6700229A603F225A60694B08
:107BF4001B78062B50D1684B1B6819074CD1674B77
:107C04001B6803F0F003502B46D14FF08052644BB5
:107C1400D2F80414C3F82015D2F80814C3F82415B4
:107C2400D2F80C14C3F82815D2F81014C3F82C1584
:107C3400D2F81414C3F83015D2F81814C3F8341554
:107C4400D2F81C14C3F84015D2F82014C3F8441514
:107C5400D2F82414C3F84815D2F82814C3F84C15E4
:107C6400D2F82C14C3F85015D2F83014C3F85415B4
:107C7400D2F83414C3F86015D2F83814C3F8641574
:107C8400D2F83C14C3F86815D2F84014C3F86C1544
:107C9400D2F84424C3F87025FFF730FF28B1414BD4
:107CA400414A1B6803F04F031360FFF727FF48B1F5
:107CB4004FF08043D3F80024D20744BF6FF0010291
:107CC400C3F80024394B1B68062B08D1384B1B68BA
:107CD400062B01BF374A136843F480631360364AA6
:107CE400D2F8883043F47003C2F88830BFF34F8F62
:107CF400BFF36F8F4FF01023D3F80022002A03DB69
:107D0400D3F80432002B2FDA2C4B0122C3F80425BC
:107D1400D3F80024002AFBD04FF010221521C2F81A
:107D24000012D3F80024002AFBD04FF010231522B0
:107D3400C3F80422214B1A46D3F800140029FBD0BF
:107D44000021C3F80415D2F80034002BFBD0BFF394
:107D54004F8F19491A4BCA6802F4E0621343CB608F
:107D6400BFF34F8F00BFFDE7164B174A1A6008BDDB
:107D7400240300104035014074C007400DF0ADBA33
:107D8400440200103C050040F0ED00E0A005004076
:107D940010560040E00F00F0E40F00F0E80F00F090
:107DA40000C0004058020010E40E004030010010F2
:107DB400340100103C17004000ED00E000E00140F9
:107DC4000400FA05D03700200090D003044B1A5C5D
:107DD400012393404FF0A042C2F80835704700BF1A
:107DE400A2B8020008B50020FFF7F0FF0120FFF75A
:107DF400EDFF0220FFF7EAFF0320BDE80840FFF78C
:107E0400E5BFC20708B501460CD54FF0A0430322D5
:107E1400C3F84427C3F84827C3F84C27C3F85027AE
:107E2400FFF7E0FF8B070AD54FF0A0430C22C3F8FD
:107E34003427C3F83827C3F83C27C3F8402708BDC4
:107E440038B5084C04F108030546002818BF1C4641
:107E540023682BB11A6822605B6828469847F7E7C5
:107E640038BD00BFCC3E002020B9054B01225A701A
:107E7400FFF7E6BF012802D1014A9070F8E7704786
:107E8400C43E002020B9034B01225A70FFF7D8BF2B
:107E9400704700BFC43E002038B50B4C237883B92B
:107EA4000A486360A3602361E36000F0D1F80546EB
:107EB40002F072FE08B900F0D9F8012323702846B5
:107EC40038BD8525FBE700BFC43E00206D7E02005F
:107ED40037B502A80023094C00F8013DFFF730FA3A
:107EE400E368013BE360E56815B900F0D3F8A570D9
:107EF4009DF80700FFF748FA03B030BDC43E0020E8
:107F0400012813B509D003D303281BD002B010BD38
:107F14000F4B0122C3F88020F8E702A800230D4C80
:107F240000F8013DFFF70CFA23780BB9FFF7B4FF13
:107F3400E3689DF807000133E3600123A370FFF7B2
:107F440023FAE3E700F092F8FFF7C2FFDEE700BF91
:107F540000E100E0C43E00201FB503788DF8003036
:107F640043680193037A8DF80830C3680393054A84
:107F7400054B684653F8213052F82110984705B054
:107F84005DF804FBD83E0020DC3E00201FB50378DA
:107F94008DF800304368019383688DF80830C36816
:107FA4000393054A054B684653F8213052F82110D3
:107FB400984705B05DF804FBD83E0020DC3E002065
:107FC400F0B5194B067891F81DE043F82620174BBD
:107FD40094460A6943F82620154B03F806E00C463C
:107FE40007460FCC89B06D460FC594E80F0085E8AD
:107FF4000F000496BEF1000F0AD0BCF1000F0D4A29
:10800400694608BF0022381D00F0C8FD09B0F0BD64
:10801400BCF1000F084A694608BF002207F10C00B2
:1080240000F0BEFBF2E700BFDC3E0020D83E00209B
:10803400E03E00205D7F0200917F020000F180405D
:10804400002382B0036003680193019B02B0704770
:10805400054A13792BB90121106011715371184627
:1080640070478520704700BFE43E0020084B1A6823
:10807400D20706D4E02283F800230122C3F880212A
:108084001A604FF080430122C3F81825704700BFDF
:1080940000E100E0044B01221A604FF08042D2F864
:1080A4001834DB03FBD470470C000040124B1B68F0
:1080B40010B573B14FF48070FFF7C0FF4FF08043E9
:1080C4000122C3F808230D4B587910B95A711B6863
:1080D40098470B4B1B6873B14FF48270FFF7AEFFE8
:1080E4004FF080430222C3F80823044B01201B688D
:1080F400BDE81040184710BD00010040E43E0020D8
:108104000401004000F1804000F5C040002382B02B
:10811400036003680193019B02B07047800000F183
:10812400A040D0F8003723F44033C0F80037D0F82B
:10813400003743EA0141C0F800177047054B4FF080
:10814400FF32072843F8202084BF1B1883F84820F7
:10815400704700BFEC3E002010B5174C94F858301F
:1081640043BBFF21E2180133202B82F83010F9D1F0
:108174000021C8B2FFF7E2FF01310C29F9D1042232
:1081840000210E4802F037FF0D4BE02283F806234E
:108194004022C3F880214FF4BE701A60FFF7B2FF8B
:1081A400084B4FF00042C3F80423012384F85830ED
:1081B400002010BD0820FCE7EC3E0020403F0020DA
:1081C40000E100E00060004030B52E4C231893F924
:1081D4003020013253D18A78002A4CD0002354F83D
:1081E400235001354FEA830240D1251802F1804221
:1081F40002F5C04285F83030002544F82350D2F807
:1082040010550B784C7825F498151B04240525F497
:10821400F85504F4801403F44033C2F81055234392
:108224000402D2F8105504F4F85423432B43C2F843
:1082340010354A780123012A4FF0A04203FA00F3D3
:108244000CBFC2F80835C2F80C3500F5E073032101
:1082540042F82310C2080C49012300F0070003FA76
:1082640000F08B5C18438854002003E00133082B92
:10827400B5D1042030BDFE2283F83020D9E7082090
:10828400F8E700BFEC3E0020403F0020F0B5394D38
:108294002C18944694F93040002C68DA8E78C6F392
:1082A4004006002E15BF0023082308270C27BB42D5
:1082B40001D10420F0BD55F8232001324FEA830494
:1082C40041D12F1845F823C087F8303016B9EA1881
:1082D40082F848008A78560716D4D70735D5820025
:1082E40002F1A042D2F8006726F00206C2F8006745
:1082F400214FC60800F0070C012202FA0CF217F80D
:1083040006C042EA0C02BA558A780E7812F00202CC
:1083140024D004F1804303F5C0430002D3F81025B0
:1083240022F4473222F44072C3F810253604D3F8FD
:10833400102500F4F85006F4403630431043C3F8D7
:1083440010050020B6E70133B1E74E7800F5E0727E
:108354004FF0A047B60047F82260C9E7083B2B441A
:1083640093F8500040EA861683F85060E9E7082045
:10837400A0E700BFEC3E0020403F002038B5204C71
:10838400251895F93020072A18DD224492F8483040
:108394009B09032B0DD14FF0A043D3F81035C340F4
:1083A40013F0010F0CBF02210321BDE83840FFF791
:1083B400B5BE012B14BF03210221F6E7D3B2072B6C
:1083C4001CD8930003F1804303F5C043D3F8100590
:1083D40040F00100C3F8100502F14000800080B2B3
:1083E400FFF790FE51B195F9303054F823302BB19A
:1083F400012303FA02F2034BC3F8042338BD00BF80
:10840400EC3E0020006000402DE9FF470024584A5C
:10841400584E594D019401211368A2F5C040012B17
:1084240080B206D1D6F804330B4202D0FFF76AFEBD
:108434000C430432AA424FEA4101EDD14F4B1B6871
:10844400012B0AD14FF4BE70FFF75CFE4FF0A0433E
:1084540044F00044D3F81035019314F0FF0F1AD000
:10846400474F00250126344210D0AB0003F180436E
:1084740003F5C043D3F81005D3F8101557F8253089
:10848400C0F30420C1F3014103B198470135082D1D
:108494004FEA4606E7D1002C66DA00224FF0FF339C
:1084A400CDE90223DFF8D8900127002634464FF0A7
:1084B400A04809EB060393F95020531C45D0D2B2CF
:1084C40022F0C005E90804A8084402F0070310F8E4
:1084D40004CC07FA03F31CEA030F36D009EB050CAE
:1084E40092099CF930C059F82CA0BAF1000F0AD1B6
:1084F400032A2AD10DF1080E1EF801C04CEA030C20
:108504000EF801C001E0032AF4D005F5E07110F87B
:108514000C0C58F821101842C1F3014105D002296E
:1085240013D1032A0BD1114604E003290DD1032AE8
:1085340005D102212846FFF7F1FD0134E4B2BAF176
:10854400000F02D011462846D0470136042EB0D180
:1085540054B14FF0A043019AD3F81035934203D09D
:108564000193029B0393A0E704B0BDE8F08700BF2A
:108574000061004000600040206100407C610040D8
:10858400EC3E0020014B1B68184700BF483F002009
:108594000D4B984237B50D4610D102A8002300F8C0
:1085A400013DFEF7CDFE094B1C7914B901221D6073
:1085B4001A719DF80700FEF7E7FE14B9002003B016
:1085C40030BD1120FBE700BF00200040483F0020E1
:1085D400034B984201BF034B00221A601A71704783
:1085E40000200040483F00200023435082B04358FD
:1085F4000193019B02B070470A4610B54FF48E7187
:10860400FFF7F2FF136A9168C95C136A01331362BE
:10861400C0F81C1510BD8B690A4610B54FF484715F
:1086240023B9FFF7E1FFD0F8183510BDFFF7DCFFE1
:10863400536AD168D0F81805C854536A0133536299
:10864400F3E700001FB501238DF80030044BCDE99A
:108654000110D3E900126846904705B05DF804FBA9
:10866400503F002030B54C4AD2F8043313F4007F55
:1086740085B015464FD0D2F82431002B4BD04FF49F
:1086840092711046FFF7B0FF4FF40173C2F808333C
:10869400424B93F8291009B9012151603E49022245
:1086A4008DF80020D1F88024C1F8802403929A69BF
:1086B4000292DA6801920022C3E906226846D3E9ED
:1086C400001290473448D0F81C315BB133490A6A30
:1086D4004B699A420A464BD291F82830002B47D175
:1086E400FFF78AFF2C4AD2F8443193B14FF4A271B8
:1086F4001046FFF779FF294B93F8291009B101219E
:1087040011609A692AB100229A61586AD968FFF700
:1087140099FF05B030BDD5F804335B07D2D5D5F841
:108724000831002BCED01D4C1B482146FFF773FFA8
:10873400636AA2699A422346C4D1E269E1684AB1F4
:108744002369E3600023606AA261E3616362FFF767
:1087540079FFB7E794F829200AB901226A600E4A22
:108764004FF40170C2F8080300229A61586AEEE7D8
:108774004FF48E710848FFF737FF51690029B1D0D3
:108784000023029191688DF800300191536168468D
:10879400D2E900139847A5E700200040503F00208D
:1087A4002DE9F8435A4B047991462C2202FB0432FA
:1087B400064692F82A200D469846002A40F0A380E7
:1087C40054490068FFF7E4FE0746002840F09D8006
:1087D40029683368481C0BD04FF0A04001228A401E
:1087E400C0F8082501F5E0724FF0030C40F822C0F0
:1087F4006868421C1FBF00F5E0724FF0A04C4FF0B8
:10880400000E4CF822E0AA6995F814C0C3F8242598
:108814006A7DBCF1010F4CEA0202C3F86C25C3F86F
:108824001405C3F80C151DD1AA68511C1FBF02F50D
:10883400E0714FF0A0404FF0000C40F821C0E9680F
:10884400481C0BD04FF0A04C01208840CCF8080500
:1088540001F5E0704FF0030E4CF820E0C3F8081562
:10886400C3F810252C23634308EB0302C2F80490D9
:108874002A6948F80320B9F1000F31D04FF48E7102
:1088840030682D7FFFF7B0FE30684FF4A271FFF718
:10889400ABFE3268204BC2F80433120B53B2002BE8
:1088A400A8BF03F160404FEA53134FEA4511BABF22
:1088B4001A4802F00F0500F561404FEA8303C9B27C
:1088C40003F16043B4BF415580F8001303F56143DD
:1088D40002F01F02012101FA02F2C3F880211A609A
:1088E40033680422C3F800252C2303FB04830022ED
:1088F400C3E9062283F829205A61012283F82A2039
:108904003846BDE8F8830827FAE71127F8E700BFDF
:10891400503F0020698602008000020014ED00E050
:10892400F8B5047900682D4D0023C0F800352C23D8
:1089340003FB04535B6873B1294BC0F80833020B83
:1089440053B201215B0902F01F0201FA02F2203343
:10895400244941F82320D0F80C65D0F81415D0F838
:108964000835D0F810254FF0FF37BE42C0F8147513
:1089740018BF06F5E076C0F80C75C0F80875C0F8A5
:1089840010751EBF4FF0A0474FF0020C47F826C0E9
:108994004E1C1FBF4FF0A04601F5E071022746F8B8
:1089A4002170511C1FBF4FF0A04102F5E072022656
:1089B40041F822605A1C1FBF03F5E0734FF0A04238
:1089C400022142F82310FFF703FE2C2303FB045477
:1089D400002384F82A306360F8BD00BF503F0020B4
:1089E4008402020000E100E02DE9F843224F0679F9
:1089F4004FF02C0909FB067480466569002D37D1B8
:108A04006261A16025624FF48E71006884F8285079
:108A1400FFF7EAFDD8F80000012383602146FFF741
:108A2400EBFD6368A1462BBBD8F80050226A63694A
:108A34009A4212D3D8F80030D3F81C21002AFBD074
:108A44000122DA6000202C2303FB067600237361E5
:108A5400BDE8F88394F8283043B9D5F81C31002BCD
:108A6400F8D049462846FFF7C7FDDFE70F20EAE7BD
:108A74001120EDE72846EBE7503F00200023435048
:108A840082B043580193019B02B070471FB5012384
:108A94008DF80030054B8DF8080001916846D3E944
:108AA4000012904705B05DF804FB00BF7C3F002036
:108AB4007FB5384AD2F82461002E49D010464FF4CD
:108AC4009271FFF7DBFF02238DF80030D2F8803477
:108AD400C2F880340393D2F83C358DF808302E4B1D
:108AE400DA6801920022C3E906226846D3E900123B
:108AF4009047284AD2F8443173B14FF4A27110461A
:108B0400FFF7BCFF244B996931B100219961D2F878
:108B14003C05D968FFF7BAFF1E4AD2F82031ABB141
:108B24004FF490711046FFF7A9FF1B4B596969B1C7
:108B3400D2F84C158DF80810002299688DF80020A1
:108B440001915A616846D3E90012904704B070BDA0
:108B5400D2F81031002BCCD04FF488711046FFF7B7
:108B64008DFF0D4BD2F83C0599698842C1D1DC696F
:108B7400D96864B1D2F8005225F02005C2F8005239
:108B84001A699C61DA60DE61FFF780FFB1E79C61DE
:108B9400FAE700BF002000407C3F00202DE9F843A5
:108BA4005E4B06799146242202FB0632044692F873
:108BB40020200D469846002A40F0AB8058490068B2
:108BC400FFF7E6FC0746002840F0A58029682368E3
:108BD400481C0BD04FF0A04001228A40C0F8082561
:108BE40001F5E0724FF0030C40F822C06868421CA3
:108BF4001FBF00F5E0724FF0A04C4FF0000E4CF890
:108C040022E0AA6995F814C0C3F824256A7DBCF152
:108C1400010F4CEA0202C3F86C25C3F80C15C3F823
:108C240014051DD1AA68511C1FBF02F5E0714FF055
:108C3400A0404FF0000C40F821C0E968481C0BD05C
:108C44004FF0A04C01208840CCF8080501F5E070F5
:108C54004FF0030E4CF820E0C3F80815C3F81025B4
:108C64002423734308EB0302C2F804902A6948F8EA
:108C74000320B9F1000F3BD04FF4887120682D7F99
:108C8400FFF7FCFE4FF490712068FFF7F7FE4FF4F6
:108C940092712068FFF7F2FE20684FF4A271FFF78B
:108CA400EDFE22681F4BC2F80433120B53B2002BA3
:108CB400A8BF03F160404FEA53134FEA4511BABF0E
:108CC400194802F00F0500F561404FEA8303C9B269
:108CD40003F16043B4BF415580F8001303F56143C9
:108CE40002F01F02012101FA02F2C3F880211A6086
:108CF40023680822C3F80025242303FB06830022EB
:108D0400C3E906225A61012283F820203846BDE8CF
:108D1400F8830827FAE71127F8E700BF7C3F002013
:108D2400B58A02001003020014ED00E0F8B50479DE
:108D340000682D4D0023C0F80035242303FB0453A1
:108D44005B6873B1294BC0F80833020B53B201219D
:108D54005B0902F01F0201FA02F22033244941F8B0
:108D64002320D0F80C65D0F81415D0F80835D0F8C5
:108D740010254FF0FF37BE42C0F80C7518BF06F53A
:108D8400E076C0F81475C0F80875C0F810751EBFF9
:108D94004FF0A0474FF0020C47F826C04E1C1FBFEF
:108DA4004FF0A04601F5E071022746F82170511CEE
:108DB4001FBF4FF0A04102F5E072022641F8226085
:108DC4005A1C1FBF03F5E0734FF0A042022142F882
:108DD4002310FFF7FDFB242303FB0454002384F832
:108DE40020306360F8BD00BF7C3F00201003020008
:108DF40000E100E001F06043B3F1005F2DE9F041D0
:108E0400074632D11C4B0679242505FB06359846C6
:108E14006C6964BB6A61A96000684FF49071FFF7E4
:108E24002DFE4FF4AC713868FFF728FE3B686A6981
:108E3400A968C3F84415C3F8482501229A606A68F2
:108E4400BAB9D3F82011D3F8582149B9002AF8D077
:108E54000F20242303FB068600237361BDE8F08101
:108E6400002A14BF0F200020F3E71020F6E711209A
:108E7400F4E72046F2E700BF7C3F002072DF704732
:108E840073DF704776DF70477ADF70477CDF7047A7
:108E94007FDF70478FDF7047B1DF70470F4B10B52E
:108EA4000446188800040B4622460D4940F003008E
:108EB4000D3CFDF7E9FD032C0ED8DFE804F00207B2
:108EC400090B0120BDE8104000F0AABD0220F9E71B
:108ED4000320F7E70420F5E710BD00BF8437002026
:108EE40087B90200FDF746BF08B5054B0121187884
:108EF400FFF7C6FF18B1BDE80840FDF73BBF08BD4A
:108F0400E437002000F08ABC0388212BF7B504461F
:108F140068D02CD8112B41D0132B58D0102B2BD127
:108F240001F01AFB444BA288444905461888000402
:108F340040F00300FDF79EFD414A00230C214FF64B
:108F4400FF7601FB03204788B74220D1A18801F0B6
:108F540039FD08B1FDF70EFFFDF7F6FE08B1FDF788
:108F640009FF042D17D10020FEF730FF04E0502B39
:108F74005CD003D83B2B4CD003B0F0BD522B41D076
:108F8400562BF9D12C4B2F491888000445E00133A6
:108F9400042BD6D1E0E7FFF7A7FFEDE701F0DCFAF9
:108FA400254D237AA288284906462888000440F0E3
:108FB4000300FDF769FD032E01D1FFF795FF288813
:108FC4002249000440F00300FDF750FDD4E70023DC
:108FD4001A4685218088FFF75BFF0028CCD0FDF777
:108FE400C9FEC9E7144B1A491888000440F004006C
:108FF400FDF73CFD02A9002321F8043DA088FFF7FA
:1090040049FFEAE700231A4619468088FFF744FF20
:10901400E3E7094B0F491888000440F00400FDF70A
:1090240025FD1321A088FFF72DFFD6E7024B0A493F
:1090340018880004C6E700BF84370020C8B80200BF
:109044004040002062B90200EFB8020023B90200D8
:1090540039B902004DB9020077B90200FDF78ABEA2
:1090640000B54FF40041A5B00020FDF737FB08B16F
:10907400FDF780FEFDF758FAFFF76EF808B1FDF72B
:1090840079FE002306A91120ADF818308DF81A30A6
:10909400FFF79AF808B1FDF76DFE06A91220FFF755
:1090A40093F808B1FDF766FE06A91320FFF78CF8C4
:1090B40008B1FDF75FFE06A91420FFF785F808B193
:1090C400FDF758FE022203238DF8562015A9854A80
:1090D4008DF854300D208DF85530FFF7D7F808B1CE
:1090E400FDF748FE7F4A15A90E20FFF7CFF808B117
:1090F400FDF740FE7B4A15A90F20FFF7C7F808B11A
:10910400FDF738FE774A15A91020FFF7BFF808B11C
:10911400FDF730FE01210D20FFF730F901210E206B
:10912400FFF72CF901210F20FFF728F90121102066
:10913400FFF724F9FEF76EF808B1FDF71BFE6A4A43
:109144006A480121FEF796F80120FEF75AFEFEF761
:109154005BFC08B1FDF70EFE01F0DAFC08B1FDF787
:1091640009FE002315A90120159301F05FFD08B144
:10917400FDF700FE15A801F003FE08B1FDF7FAFDA6
:1091840011235B488DF8183001F08AFF584982B2E8
:1091940006A8FFF77BFE08B1FDF7ECFD08220021CD
:1091A40015A801F028FF534A4FF0C87315A8CDE95C
:1091B4001523FFF769FE08B1FDF7DCFD00214E48D9
:1091C40001F034FA08B1FDF7D5FD4C4B4C4E159324
:1091D40000240C2515A905FB046001F0E1FB08B18E
:1091E400FDF7C8FD0134042CF4D1464800F0DAF848
:1091F4003C22002106A801F0FEFE022301248DF882
:1092040018303C220623002115A88DF81A408DF849
:109214001B3001F0F0FEADF864403B4C3B4B216841
:109224001A93221D06A800F0F1FD08B1FDF7A2FD76
:10923400374AA16815A800F0E9FD08B1FDF79AFDC9
:1092440018220021684601F0D6FE00234FF49672DE
:10925400CDE9013201228DF80020ADF80C306A46C8
:109264004FF4807328492B48ADF81430FFF706FEFD
:1092740008B1FDF77FFD00F0E1F91C22002115A8DB
:1092840001F0B9FE00234FF42022CDE91532ADF8E8
:1092940062304FF42032012317928DF86430032298
:1092A4001D4B8DF8602015A81B9301F079F808B1C7
:1092B400FDF760FD194B0E4A18881949000440F067
:1092C4000300FDF7D7FBFFF70FFE00224FF4004128
:1092D4001448FDF7E1FFFDF767FA0028FBD1FEF71C
:1092E400A9FBF8E7A18E0200098F0200ACB90200C5
:1092F400B0B902005000A000F43F0020E98E020043
:1093040040400020A03F0020D4370020E637002052
:10931400E0370020E4370020619002008437002009
:10932400B7B9020020400020A8DF7047AADF7047C9
:10933400AEDF704762DF704770B5174E0446308861
:10934400228800040D4640F003001449FDF792FB07
:109354002388112B06D0502B0CD0102B01D1A388BD
:109364002B8070BD4FF6FF732B802046BDE8704004
:1093740000F00CBC3088E2880949000440F0030086
:10938400FDF778FBAA88E3889A42EAD12046BDE833
:10939400704000F059BA00BF843700200BBA0200B5
:1093A4002FBA02002DE9F047874B9AB006AA03F1C1
:1093B400100507461646A84618685968144603C49B
:1093C4000833AB422246F7D14FF20D030DF10A01E7
:1093D4003046ADF80830FFF7ADFF08B1FDF7CAFC21
:1093E4003A464FF6FF7322F8023B02A90120FFF729
:1093F4009BFF08B1FDF7BEFC0AAA734B924618689E
:109404005968144603C4083343452246F7D11C2245
:10941400002113A801F0EFFD9DF84C30DFF8B8915E
:10942400002443F00A030DF10E0150468DF84C3030
:109434001494CDE91644CDE91844FFF77BFFB9F83D
:1094440000009DF80E30614900044BF6EE6240F0D6
:10945400030001ADADF80C20FDF716FB03222146F5
:10946400284601F0C8FD9DF80430012262F303038D
:1094740062F307138DF804309DF8053062F303039B
:1094840062F307138DF805309DF8063062F342034A
:1094940003F0E70364F30003142221460EA88DF8B9
:1094A400063001F0A8FD4A4B0493052310931423BE
:1094B400ADF8443004AB03AE12930EAA3B1D13A9BE
:1094C40078888DF81440CDE90E65FFF72FFF08B1B9
:1094D400FDF750FC3C4B544618685968224603C2B9
:1094E400083343451446F7D103220021284601F0EE
:1094F40082FD41F21113ADF804309DF806304FF0AF
:10950400010868F342031C22002113A88DF80630D9
:1095140001F071FD9DF84C30002443F012030DF16D
:10952400120150468DF84C301494CDE91644CDE91F
:109534001854FFF7FFFEB9F800009DF812302549D2
:1095440000044BF6EF6240F00300ADF81020FDF785
:109554009BFA03222146304601F04DFD9DF80C3064
:1095640068F3030368F307138DF80C309DF80D308E
:1095740003F0F00364F307138DF80D309DF80E30FB
:1095840068F3420303F0E70364F300031422214663
:109594000EA88DF80E3001F02EFD04ABCDE90E3689
:1095A400042310931423ADF844300EAA07F10C03DE
:1095B40013A978881294FFF7B9FE08B1FDF7DAFB16
:1095C4001AB0BDE8F08700BFC3B90200D3B90200E6
:1095D40012345678EEB902008437002070B515466F
:1095E40088B010220C46064600210DEB0200ADF8AF
:1095F4000E3001F000FD0F4A0F4910882A680092CE
:1096040001238DF812300023ADF8143000040DF15D
:109614000E03CDE906352246BDF80E30ADF81060D4
:1096240040F00300FDF73AFA04A92046FFF780FE54
:1096340008B070BD843700205ABA020038B50A4D0C
:109644000124082001F064FC0822002145F82400CC
:1096540001F0D1FC55F8243001344FF6FF72052C8B
:10966400DA80EED138BD00BF70400020F8B51E4648
:109674000C4B0446188800040B4640F003000D46CA
:10968400174609492246FDF7FFF9631E032B9FBFC6
:10969400064B53F8243000201D709ABF5F80DE8093
:1096A400E320F8BD84370020EEBA020070400020A9
:1096B400431E032B9FBF044B53F820301B780B70C1
:1096C40094BF0020E320704770400020431E032B0A
:1096D4009FBF044B53F82030DB880B8094BF0020DD
:1096E400E320704770400020431E032B0CD8074B27
:1096F40053F820301A7812B15A88013A5A80B3F9D3
:1097040002300B8000207047E32070477040002037
:1097140010B5084C012254F822100B7823B9012407
:109724000C700270184610BD0132052AF3D1E520F1
:10973400F9E700BF70400020431E032B0DD800F151
:109744001003012098404FF0A04301290CBFC3F837
:109754000C05C3F8080500207047E320704700009B
:10976400F7B5284D284B29499F89294E0446288856
:109774000004224640F00300FDF77CF90021204656
:10978400FFF7DAFF0DF102012046FFF79FFF0246C3
:1097940080BBBDF802104FF6FF7399420ED056F805
:1097A40024301B78032B09D0230202AA43F00503BB
:1097B40042F8043D38460423FFF710FF288856F882
:1097C400243014491B780004224640F00300FDF7BE
:1097D4005BF956F824301B78012B18BF00224FF692
:1097E400FF7306BF0622032111462046FFF73EFF02
:1097F40003B0F0BD2B8808491B0443F00300FDF7B8
:1098040039F9DBE784370020A03F00208EBA02003C
:1098140070400020E1BA0200ABBA020013B5012483
:109824000DF106012046FFF75FFF30B9BDF90630A0
:10983400002B02DA2046FFF793FF0134E4B2052C33
:10984400EED102B010BD00002DE9F04F664DB0F826
:1098540010B08688654B6649B3F80C8004462888A6
:1098640085B004AF000440F003004FF0FF0A4FF04E
:1098740000098DF80AA047F8049DFDF7F7F8BBF13D
:10988400010F288820D994F81290E37C8DF80A30CF
:10989400000400935A464B46564940F00300FDF736
:1098A400FDF89DF80A30FF2B2ED10DF10A00FFF7C9
:1098B4002FFF48B328885049000440F00300FDF707
:1098C400D5F84EF2015315E04FEA004040F0030092
:1098D40009D194F8129049498DF80AA04B465A468A
:1098E400FDF7D2F8DDE753464A464549FDF7CCF883
:1098F4004EF2012303933A46042331464046FFF7D0
:109904006DFE05B0BDE8F08F0DF10B019DF80A0066
:10991400FFF7CEFE04462888000454B12246394994
:1099240040F00300FDF7A6F8240244F00104039478
:1099340029E0B9F1010F40F003009DF80A203FD15E
:109944003149FDF797F89DF80B20012A08D928889A
:109954002E49000440F00300FDF78CF8E424E3E70B
:1099640049469DF80A00FFF7E7FE33460622022126
:109974009DF80A00FFF77AFE04460028D4D19DF82A
:109984000A301B02039304233A4631464046FFF74C
:1099940025FE0DF10B019DF80A00FFF789FE2888CA
:1099A4009DF80B201A49000440F00300FDF762F80B
:1099B40028881849000440F00300FDF757F8A0E791
:1099C400B9F1000F0AD11449FDF754F821469DF866
:1099D4000A00FFF7B1FE33462246C9E70F49FDF7F7
:1099E40049F8E224A0E700BF84370020A03F00200C
:1099F40001BB020016BB0200AABB020045BB020069
:109A04007BBB0200BCBB0200D7BB0200F0BB020060
:109A140040BC020052BC020013BC02002DBC020078
:109A2400F7B54F4E4F4A5049978905463088000490
:109A3400002340F00300ADF802300193FDF716F85F
:109A44000DF102012846FFF741FE0DF10101284600
:109A5400FFF72EFE044660B13088444900042246D4
:109A640040F00300FDF706F8240244F001040194D9
:109A74003DE09DF80130EBB930883D4900042A46A9
:109A840040F00300FCF7F6FF01212846FFF754FEDF
:109A94000121BDF8023006222846FFF7E7FD0446FF
:109AA40030883449000440F00300FCF7DFFF002C49
:109AB400DAD11AE0022B16D130882F4900042A4645
:109AC40040F00300FCF7D6FF21462846FFF734FE9A
:109AD4002246BDF802302846FFF7C8FD0446308808
:109AE40026490004DFE7012B21D02B020193BDF8A6
:109AF400021029B104230DEB03023846FFF76EFD73
:109B04000DF101012846FFF7D3FD30889DF80120AF
:109B14001B49000440F00300FCF7ACFF30881949EE
:109B2400000440F00300FCF7A1FF03B0F0BD30884F
:109B3400114900042A4640F00300FCF79BFF21462C
:109B44002846FFF7F9FD0321BDF802300622284616
:109B5400FFF78CFD044630880B490004A3E700BFDF
:109B640084370020A03F002067BC0200BCBB020079
:109B7400D7BB02007BBC020013BC02009CBC0200E9
:109B840040BC0200EABC0200BBBC0200818807485A
:109B940030B501234FF6FF7450F82320D5880133E4
:109BA4008D4208BFD480052BF6D130BD7040002013
:109BB4000369C1688B429DBF8268D21802F1FF32EB
:109BC40003F1FF3394BF501A581A70472DE9F0413E
:109BD400D0E902670446F61B40689642884615465B
:109BE400384405D901F0DEF93D44E560BDE8F08173
:109BF4003246AD1B01F0D6F92A4608EB060160682F
:109C040001F0D0F9F1E72DE9F843C5680646894625
:109C140017464FF000083469B3687068A54228BF3E
:109C2400E418013C621B5C1BBC4228BF3C469442C6
:109C340028BF144649462844224601F0B3F9B368C4
:109C44002544AB4208BF00253F1BA044A144F56056
:109C5400E1D14046BDE8F88310B5114C114AA26128
:109C64000223C4E90433104BE361A2644FF400738C
:109C74000E4A2362E264002310220D49A362E01D10
:109C84006362E362A3656365E365226501F0E6F957
:109C94000849204601F0E2F92023A37110BD00BF5A
:109CA40084400020FEBC02000C410020FC40002047
:109CB40007BD02000BBD0200F8B5184C182300FBC9
:109CC400033503FB00402544C46A012C0F461646A5
:109CD40011D003D3022C1BD000240AE02846FFF73E
:109CE40067FF864205D8324639462846FFF76EFF9D
:109CF40034462046F8BD2846FFF75AFF86423446CC
:109D040028BF0446224639462846FFF75FFFF0E79E
:109D14002846BDE8F840FFF776BF00BF8440002026
:109D2400FFF79ABF6DDF704779DF70477DDF7047BB
:109D340064DF70472DE9F74F0C9CBDF834B02788D9
:109D4400002580468A4691462E46B8F80020B24245
:109D54000BDC35B12288013AD21B92B2FF2A39D8E2
:109D6400DA55002003B0BDE8F08FD8F8042052F88B
:109D74002600019000220DF1030101A8FFF7D8FF8E
:109D84000028EFD19DF803204A4521D12288002DD7
:109D940014BF0020022002EB09010144594519DCDB
:109DA4003DB9013292B2228003F802A02288013226
:109DB400228022880DF103011A4401A8FFF7B8FF9D
:109DC4000028CFD121889DF803200A442280012550
:109DD4000136BAE70C20C5E72DE9F341089CBDF82C
:109DE40024501746CDE9004502220646FFF7A2FF9C
:109DF40048B9102239463046CDE9084502B0BDE8DD
:109E0400F041FFF797BF02B0BDE8F0812DE9F04FB4
:109E140000231688138090F82D3085B007460D4630
:109E2400144653B3082E01D80C2004E102A8FFF70E
:109E340079FF002840F0FF8013880822CA54238841
:109E440001339BB21B222380CA542088013080B284
:109E5400208006220DF10901284401F0A3F823888B
:109E64009DF8082006339BB212F0FE0218BF0122AF
:109E74002380EA54238801332380BB78FBB12388F1
:109E84000433B342D0D802A8FFF74EFF002840F0B5
:109E9400D28023880322EA54238801339BB21922F7
:109EA4002380EA542388BDF8082001339BB2E918C3
:109EB4002380EA54120A4A70238802332380FA78F2
:109EC4009AB12388D91CB142AED80221E95423881F
:109ED40001339BB201212380E95423880B449BB2B4
:109EE4002380EA5423880B4423807A68AAB1238808
:109EF400D91CB14298D8022192F90020E954238850
:109F040001339BB20A212380E954238801339BB295
:109F14002380EA542388013323803B89002B7ED19C
:109F24003B8A53B1CDE900462B460722032107F1B2
:109F34001000FFF751FF00287DD13B8B53B1CDE9D1
:109F440000462B461522142107F11800FFF744FFA1
:109F5400002870D13A6A002A70D1D7F82480B8F169
:109F6400000F30D0B8F804302188981C8A1C0244B1
:109F7400B2423FF659AFFE283FF656AF03336B5457
:109F8400238801339BB2FF222380EA5423880133C0
:109F94009BB22380B8F80020EA54E918120A4A70E8
:109FA4002088023080B22080B8F804205AB1D8F852
:109FB400081000294CD0284400F0F4FF2388B8F896
:109FC40004201344238097F82C30002B7BD138785D
:109FD40088B33B88012B3BD021888A1CB2423FF6D0
:109FE40023AF012805D17B7802330B449E42FFF452
:109FF4001BAF023E761A04A9B6B221F8086DA81860
:10A00400FFF794FEB8B93B78022B40F09F80BDF86F
:10A014000830B34240F2B680ADF808609FE0CDE965
:10A0240000462B460622022107F10800FFF7D4FE62
:10A0340000283FF475AF05B0BDE8F08FB4F800C058
:10A044000CF10603B3423FF6EFAE1188052901D89F
:10A054000720F0E76FF4486E01EB0E039BB24FF25A
:10A064007D3E7345F4D95388052BF1D96FF44860CC
:10A07400181880B27045EBD94FF6FF70814203D0B7
:10A08400834201D09942E3D8052305F80C30238894
:10A0940001339BB212212380E954238801339BB2FC
:10A0A40023801188E954E818090A4170238802338F
:10A0B4009BB223805288EA54E918120A4A70238812
:10A0C4000233238049E7BB6A002BC1D04FF000095B
:10A0D4004FF00C0A4FF0160B97F82C305FFA89F208
:10A0E40093427FF674AFB96A0AFB02F201EB0208ED
:10A0F400B8F80430981CFE283FF696AE2088033347
:10A104002B54238801339BB2238005F803B02388A2
:10A1140001339BB223808A5AEA54E918120A4A701E
:10A124002088023080B22080B8F804205AB1D8F8D0
:10A13400081000298CD0284400F034FF2388B8F894
:10A1440004201344238009F10109C5E7012B7FF49E
:10A1540063AF7B789E42FFF45FAFADF8083008210F
:10A16400BDF80830FE2B3FF65FAE22880133AB54B6
:10A174002288013292B22280A95422881344238077
:10A18400002058E70921EBE775DF704776DF704759
:10A194007ADF70477BDF7047074B30B50022142409
:10A1A40004FB02F1CD5A854201D1581830BD013269
:10A1B400042AF5D10020F9E728430020024B9B69CB
:10A1C40003B11847704700BF0C43002037B585B270
:10A1D4002846FFF7E1FF034670B1164C017A227B53
:10A1E40091420BD200F10A012846FFF7CDFFE8B1F6
:10A1F400112801D0FFF7E2FF03B030BD237C002219
:10A20400027243B13B212846FFF7C0FF30F0080338
:10A2140001D0FFF7D3FF6369002BEDD000228DF846
:10A224000420ADF8065001A89847E5E71A7A0132F0
:10A234001A72E1E70C43002013B50B46497A0F4C20
:10A24400024669B9D4E901101C7A002C18BF0146F2
:10A254005868FDF721F808B1FFF7B0FF02B010BD50
:10A26400002119726369002BF8D00121ADF80600B2
:10A274008DF8041001A89847F0E700BF0C430020B4
:10A284008388B3F5FA7F28BF6FF4F97230B528BF1D
:10A294009C1805884A8838BF002495420CD8408809
:10A2A400904209D38A88A24206D303F2F310904263
:10A2B40034BF0020012030BD0020FCE70388112BAF
:10A2C40070B5044649D002D8102B1ED070BD122B95
:10A2D40053D0502BFAD1304BC288DB899A42F5D146
:10A2E400038A022BF2D186883046FFF755FF0546D4
:10A2F4000028EBD004F1120000F040F938BB686884
:10A30400FDF70EF80028E1D009E0C37B012BDDD175
:10A314004FF6FF70FFF740FF054620B90420BDE863
:10A324007040FFF74BBF1D4AA688068000230372C6
:10A334001368C5F80A300A305368436004F1100109
:10A34400FFF79EFF144B6872DB89002BBED12946B0
:10A354003046BDE87040FFF76FBF8088FFF71CFFF1
:10A3640004460028B2D04068FCF7DAFF08B1FFF7D2
:10A3740025FF4FF6FF732380A8E786883046FFF752
:10A384000BFF05460028A1D004F108010A30FFF7AD
:10A3940077FF6872DBE700BF0C430020784300209E
:10A3A4002DE9F041064698B305460FCD1A4F3C46B9
:10A3B4000FC495E8070084E807003068174B3B603A
:10A3C400F8B1FFF7E5FE08BB31680A681A604A680D
:10A3D4005A60134C134FDFF8508000254FF6FF7678
:10A3E40007EB451324F8046C236042460021204601
:10A3F400FCF740FF70B90135042D04F11404EFD1CA
:10A4040004E01846FFF7C6FE0028E2D0BDE8F0815C
:10A414000E20FBE70320F9E70C43002078430020DB
:10A424002C43002080430020D1A1020073B5019188
:10A43400019C06466CB100252C46294601A8FCF770
:10A44400CCFF18B106EB440301349D800135142D73
:10A45400F3D13046346002B070BD00002DE9F04302
:10A4640003888488112B8DB0064640D01A2B43D024
:10A47400102B16D1294DAB680CA8DB4340F8303DB6
:10A4840055F8041FFCF7D2FF009901A8FFF7CEFF8F
:10A494000027019B9F4207D3132C18D90420FCF7F3
:10A4A40069FC0DB0BDE8F08301AB03EB47034FF04B
:10A4B4000008B3F8049005EB0800494608F10408C5
:10A4C400FCF781FFB8F1740FF5D10137E1E72146BC
:10A4D4001348FCF76FFF21461248FCF76BFFF37B30
:10A4E400012BDED010482146FCF764FFD9E70C4865
:10A4F4002146FCF768FFD4E7057A0C482D09012DA5
:10A50400214606D9FCF756FF022D21460848F0D013
:10A51400EAE7FCF758FF21460548EAE70044002033
:10A5240008440020044400200C440020104400206F
:10A534001444002073B502AE002446F8040D2546E9
:10A5440021463046FCF749FF00B101350134142C93
:10A55400F6D1284602B070BD07B5074AD36802A8F1
:10A56400DB4340F8043D9168FCF760FF0198FFF776
:10A57400E1FF03B05DF804FB00440020007800F024
:10A584000100704790DF7047A5DF7047B5DF704763
:10A59400F0B5214C07462088000485B00D460A46D4
:10A5A4003B461E4940F00400FCF76EFA00236A465D
:10A5B40002A93846ADF80850ADF80A500393009349
:10A5C400ADF80430FFF7DEFF064610B32588FDF72B
:10A5D4008BFA2D0445F0010503463A4610492846F6
:10A5E400FCF752FABDF80020BDF8023002B933B1CD
:10A5F40020880C49000440F00100FCF745FABDF83E
:10A60400042032B120880849000440F00100FCF71E
:10A6140031FA304605B0F0BD9037002012BD02007B
:10A6240041BD02008BBD0200CABD020010B5A0B13D
:10A634004FF0171303601B238162037100F12004A0
:10A6440017210022C18001818272C2720373437395
:10A654000830A042F6D1002010BD0E20FCE7000017
:10A664002DE9F04F8588032D87B007460C4622D884
:10A674000388232B4FEAC50600F03A811ED8102B1D
:10A684006CD0112B00F0AC803444A37A9BB1E188E8
:10A694002846FFF779FF002840F03D810123E3724B
:10A6A400A54BA0721888E288A44900042B4640F008
:10A6B4000400FCF7E9F907B0BDE8F08F3A2B00F08D
:10A6C4009A80552B00F0C580242BDDD19A4FB0F829
:10A6D40008908389B0F80AB0B0F80EA038880393C4
:10A6E40001EB06085FFA89F200042B4688F80D2076
:10A6F400934940F00400FCF7C7F9388891490004F5
:10A704005A4640F00400FCF7B5F938888E49000435
:10A714004A4640F00400FCF7ADF938888B49000440
:10A72400524640F00400FCF7A5F93888039A88499A
:10A73400000440F00400FCF79DF9A36A002BA3D0A9
:10A744000022ADF814204DF67A22ADF8102098F8C6
:10A754000D20ADF812508DF81420C5E0C37B0A79A2
:10A764008F19012B3A7320D0022B21D0FA883B8910
:10A77400934211D2DFF8C0817649B8F80000000492
:10A7840040F004002B46FCF77FF9F9882846FFF7D0
:10A79400FBFE78B90123FB72397B7B7B8B42BFF4D0
:10A7A40073AF2846FFF7F4FE6EE70B88FB80DDE706
:10A7B4004B88FBE7B8F8008011284FEA084808D115
:10A7C40001236549BB722A4648F00400FCF752F99C
:10A7D400E2E7FDF789F96149024648F00100F5E72F
:10A7E4008B191722DA801A8100229A72DA721B22DC
:10A7F4001A735A7348E701EB06084289B8F8063021
:10A8040057499A4228BF1A464B4B1888172A38BF13
:10A81400172200042B46A8F8082040F00400FCF797
:10A8240033F9A36A7BB198F80B2062B140F6772222
:10A83400ADF81020B8F80820ADF81250ADF8142087
:10A8440004A920469847002388F80B3088F80A307A
:10A854001AE7DFF8E490C788B9F80000414904EB2F
:10A86400060800043B462A4640F00400FCF70CF9B5
:10A87400B8F80630B9F80000172F3A4638BF172247
:10A884009A4228BF1A460021000488F80A10A8F842
:10A8940008203549009540F00400FCF7FFF8B8F8AB
:10A8A40006102846FFF772FE58B1B9F80070FDF79C
:10A8B4001BF93F0447F0010702462C493846FCF7D0
:10A8C400D9F898F80B30002B7FF4DEAEA36A002B86
:10A8D4003FF4DAAE40F67722ADF81020B8F808203D
:10A8E400ADF81250ADF8142004A920469847CBE6E1
:10A8F400114B90F8088018881D490004434640F025
:10A9040004002A46FCF7C0F8A319B888197B41450E
:10A9140028BF414646E711283FF4CDAE064B1C88BC
:10A92400FDF7E2F8240444F0010402460B492046F2
:10A93400FCF7A0F8BFE600BF9037002073C0020008
:10A94400C3BF0200F2BF020004C0020016C002002E
:10A9540026C0020020BE02005DBE0200AFBE02009F
:10A96400E0BE02001BBF020055BF020094BF0200FC
:10A9740036C00200B0DF704766DF7047034610B58B
:10A9840000214088FFF7F8FF024608B91A7210BD8B
:10A99400112801D10122F9E75B68BDE8104018478E
:10A9A40060B159B10378DE2B0AD00B684360DE2313
:10A9B40003704FF6FF734380002070470E207047EA
:10A9C4000820704728B10378DE2B04D14180002091
:10A9D40070470E20704708207047F0B5054685B0D3
:10A9E4000C46F1B1E8B10B78DE2B1AD182884B8882
:10A9F4009A4204D10B7A13B10846FFF7BFFF2B88A4
:10AA0400112B32D0512B0ED0012B0AD12B7A012BD2
:10AA140007D1A9886288914203D123722046FFF7A7
:10AA2400ADFF05B0F0BDAE886388B342F9D1AF790C
:10AA3400022FF6D1AD7B2B1F022BF2D8002110225E
:10AA4400684600F0D8FA052D14BF4FF4C0730023F4
:10AA5400694630468DF80070ADF80430FFF78AFF80
:10AA64000028DED063689847DBE76388AA889A42A7
:10AA740004BF4FF6FF736380D3E710DF7047000015
:10AA840013B5044609496846FCF7FAFF019808B96A
:10AA940002B010BDD0E900312046984718B168468D
:10AAA400FCF7F8FFF2E71120F2E700BFCCC0020088
:10AAB40013B5044607496846FCF7E2FF019B0BB94E
:10AAC40002B010BD2046D3E9002190476846FCF748
:10AAD400E1FFF3E7E4C002000B4A92F816335B0986
:10AAE400012B08D9042B06D0084B996839B94FF4C7
:10AAF40080031360704742F20200FCF73BB91A6806
:10AB040042F480021A60704700E100E0A83E002091
:10AB1400F7B51B4F3C788CBB1A4E01252046357087
:10AB2400FFF7AEFF112826D02046FFF7C1FF164BD2
:10AB34001868019002A800F8054DFCF701FC1349C0
:10AB440001A8FFF79AFF0446B0FA80F04009387074
:10AB54009DF80300FCF718FC6CB90D4B34701C70A5
:10AB64000C4BE02283F8162383F81523FFF7B4FF78
:10AB74002846FFF79DFF204603B0F0BD0824FAE7FE
:10AB84007944002078440020C5C00200956D02007D
:10AB94007A44002000E100E0014B1878704700BFC0
:10ABA4007944002007B508496846FCF769FF019B12
:10ABB40013B903B05DF804FBD3E90020904768465D
:10ABC400FCF768FFF3E700BFD8C00200FFF7EABF55
:10ABD40060DF704769DF704761DF704730B5114B44
:10ABE4001B7891B0E3B1104D34240DF1020103A898
:10ABF400ADF80240FFF7F0FF70B9294601A8FCF751
:10AC04003FFF029B002BF0D003A8D3E9002190471B
:10AC140001A8FCF73FFFF4E7052801D0FCF7AAF8E8
:10AC240011B030BD7B44002024C3020030B505467A
:10AC340085B00C46002900F093804A4B0B600C222F
:10AC4400002101A800F0D7F904238DF8063022680A
:10AC54008DF80450062301A92020ADF80830FFF731
:10AC6400B9FF58B1404B1D88FCF73EFF2D0445F059
:10AC7400010502463D492846FBF7FCFE0C22002153
:10AC840001A800F0B8F904238DF8053022680023E8
:10AC940001A940208DF806308DF80730FFF79AFFA0
:10ACA40058B1314B1D88FCF71FFF2D0445F00105F9
:10ACB40002462F492846FBF7DDFE0C22002101A89D
:10ACC40000F099F9012022688DF8040001A9FFF72A
:10ACD40081FF58B1244B1D88FCF706FF2D0445F075
:10ACE4000105024623492846FBF7C4FE0C22002135
:10ACF40001A800F080F94FF4B0632268019301A920
:10AD0400A120FFF767FF58B1174B1D88FCF7ECFE35
:10AD14002D0445F00105024617492846FBF7AAFE13
:10AD24000C22002101A800F066F99DF80430226885
:10AD34006FF3000301A9A0208DF80430FFF74AFF48
:10AD440060B1094B1C88FCF7CFFE240444F00104D5
:10AD540002460A492046FBF78DFE002005B030BDAF
:10AD64000E20FBE77037002098370020F8C002005F
:10AD74003EC102008AC10200D6C1020027C20200FD
:10AD8400F8B504460768FFF723FF2368BB4205466E
:10AD940020D91A4E1A493088000440F00200FBF70B
:10ADA40065FE30882368174900043A4640F00200E3
:10ADB400FBF76AFE4FF080533088D3F80C312268D9
:10ADC40011499B0203F1005300049A1A40F0020057
:10ADD400FBF750FE25B90D4B01221A702846F8BD29
:10ADE400064B28461C88FCF77FFE240444F001042B
:10ADF400024607492046FBF73DFEEFE7983700205F
:10AE04007AC20200A9C20200DAC202007B44002016
:10AE140004C302004BDF70471FB50D4C01A8FFF7B8
:10AE2400F9FF70B9214602A8FCF72AFE039B002B08
:10AE3400F4D00198D3E90021904702A8FCF72AFE38
:10AE4400F4E7052801D0FBF795FF04B010BD00BF5F
:10AE54003CC302007F2805D8034B185C034B5B5CA2
:10AE6400184070470020704754C30200D4C3020046
:10AE7400A0F16103192B98BF20387047A0F141035A
:10AE8400192B98BF203070477F2805D8034B185CD6
:10AE9400034B5B5C184070470020704754C30200AA
:10AEA400D4C30200A0F16103192B98BF2038704766
:10AEB400A0F14103192B98BF203070477F299ABF16
:10AEC400017001206FF02E0070475AB10A787F2A72
:10AED4000AD800B10260002119605960501A18BFE5
:10AEE40001207047002070476FF02E00704700006B
:10AEF40008B5034B5B689B681B68984708BD00BF97
:10AF0400EC37002008B50921FFF7F2FF08BD000067
:10AF140038B5214B214A9B1A102B3BD9044600F02B
:10AF2400EFF804F1130020F00F021D4B196869B308
:10AF34004B689A420CD04FF0FF34002513E041B126
:10AF440003680B60044644F8042B00F0DAF81BE0B5
:10AF540008460168124B1960F4E7086850B1436869
:10AF64009342ECD001469A42F7D2A3423CBF1C461E
:10AF74000D46F2E755B16B689B1A6B60A31AEC1887
:10AF8400EA5000F0BEF80434204638BD00F0B9F8A9
:10AF94000024F9E70024F7E77C6400207C440020C7
:10AFA40000380020844640EA010313F0030F18D14F
:10AFB4008446202A0BD32DE9F007B1E8F807A0E86E
:10AFC400F807A2F12002202AF7D2BDE8F007042AEC
:10AFD40007D351F8043B40F8043BA2F10402042ACD
:10AFE400F7D2002A05D011F8013B00F8013B013AE1
:10AFF400F9D1604670478446002A2DD010F0030F23
:10B0040004D000F8011B013A26D0F7E7C9B241EA9F
:10B01400012141EA0141202A12D3A2F120022DE9A3
:10B02400F0030B460C460D460E460F4688468946ED
:10B03400A0E8FA03203AFBD2BDE8F00320320BD09B
:10B04400042A05D340F8041B043A05D0042AF9D293
:10B0540000F8011B013AFBD160467047024610F02C
:10B06400030F16D111F0030F13D12DE9F0004FF0A7
:10B0740001374FF0803351F8044BA4EB070525EA60
:10B0840004051D4002D142F8044BF4E7A1F1040188
:10B09400F0BC11F8013B02F8013B002BF9D17047D9
:10B0A40000F1010110F0030F11D010F8012B002A58
:10B0B40023D010F0030F0AD010F8012B002A1CD063
:10B0C40010F0030F03D010F8012B002A15D02DE93E
:10B0D40070004FF001324FF0803350F8044BA4EB72
:10B0E400020525EA04051D4000D1F6E7A0F104009D
:10B0F40070BC10F8012B002AFBD1A0EB01007047B3
:04B1040070477047D9
:08B10800897E02000000000036
:10B1100061A402000000000065A60200F43F0020C8
:10B12000C1A2020000000000DFA902004040002090
:10B13000DFA902004C400020DFA902005840002097
:10B14000DFA90200644000203D930200A03F0020E0
:08B150000D8F02000000000059
:10B15800ACB8020000000000B2B802000000000015
:10B16800B9B8020000000000BDB8020000000000ED
:10B17800C2B802000000000081B20200000004040E
:10B1880085B2020000000003A6B80200000000001B
:10B19800B8C0020000000404F0C00200000003036D
:10B1A80030C302000000030348C302000000030389
:08B1B800A4B302000000000036
:10B1C000883800205039002058390020903800205D
:08B1D000883700201800000080
:08B1D800057F020000000000E9
:10B1E000E1AB0200000000001DAE02000000000004
:10B1F000000000000000000000000000000000004F
:10B20000000000000000000000000000000000003E
:10B21000000000000000000000000000000000002E
:04B22000000000002A
:10B224000000000000000000000000000338FDD80A
:10B2340070470000F962020065630200F5620200D3
:10B24400FFFFFFFFFFFFFFFFFFFFFFFFFFFFFFFF0A
:10B2540000000000000000000000D601070100000B
:10B2640095640200F9640200456402004261636B64
:10B27400656E647320666C757368656400617070D4
:10B284000062616C6C6F632E6C6F675F6D656D70CF
:10B294006F6F6C00CBB2020010B30200D0B2020098
:10B2A40018B3020020B3020028B3020030B3020036
:10B2B40038B3020040B30200202530327800202049
:10B2C40020007C002563001B5B306D001B5B313B61
:10B2D40033316D0025734C6F67732064726F707027
:10B2E4006564202825642925730D0A003C25733ED6
:10B2F4002025733A200000000000000061B3020022
:10B3040048B3020050B3020055B302001B5B313B4B
:10B3140033306D001B5B313B33326D001B5B313BC3
:10B3240033336D001B5B313B33346D001B5B313BAE
:10B3340033356D001B5B313B33366D001B5B313B9A
:10B3440033376D007761726E696E6700696E666F80
:10B3540000646562756700466174616C2065727291
:10B364006F720053797374656D2072657365740030
:10B374000000000000000000000000000338FDD8B9
:10B3840070473031323334353637383941424344EB
:10B394004546000058B1020058B102000400000004
:10B3A4007077725F6D676D7400556E6B6E6F776E3C
:10B3B400206572726F7220636F6465000000000084
:10B3C400E8B4020001000000F4B40200020000002E
:10B3D40012B502000300000033B5020004000000AF
:10B3E40046B502000500000057B502000600000043
:10B3F4006BB502000700000083B5020008000000DE
:10B404009BB5020009000000B3B502000A00000069
:10B41400CCB502000B000000E4B502000C000000F3
:10B42400FBB502000D0000000FB602000E00000084
:10B4340021B602000F00000030B602001000000028
:10B4440044B60200110000005BB6020012000000C6
:10B454006AB60200130000007FB6020080000000FC
:10B4640093B6020081000000B4B60200820000001E
:10B47400D0B6020083000000ECB602008400000095
:10B484000AB70200850000002BB702008600000006
:10B4940050B702009000000067B70200910000005E
:10B4A40085B7020092000000A3B7020000820000EA
:10B4B400B8B7020001820000D6B702000282000081
:10B4C400F2B70200008400000EB8020001840000FC
:10B4D40032B80200028400005CB802000384000059
:10B4E40081B802004E52465F5355434345535300BF
:10B4F4004E52465F4552524F525F5356435F484146
:10B504004E444C45525F4D495353494E47004E52A9
:10B51400465F4552524F525F534F46544445564935
:10B5240043455F4E4F545F454E41424C4544004EA7
:10B5340052465F4552524F525F494E5445524E4116
:10B544004C004E52465F4552524F525F4E4F5F4D34
:10B55400454D004E52465F4552524F525F4E4F5436
:10B564005F464F554E44004E52465F4552524F522D
:10B574005F4E4F545F535550504F52544544004E04
:10B5840052465F4552524F525F494E56414C4944D0
:10B594005F504152414D004E52465F4552524F5208
:10B5A4005F494E56414C49445F5354415445004E03
:10B5B40052465F4552524F525F494E56414C4944A0
:10B5C4005F4C454E475448004E52465F4552524FD9
:10B5D400525F494E56414C49445F464C41475300E3
:10B5E4004E52465F4552524F525F494E56414C4966
:10B5F400445F44415441004E52465F4552524F52BB
:10B604005F444154415F53495A45004E52465F4599
:10B6140052524F525F54494D454F5554004E524675
:10B624005F4552524F525F4E554C4C004E52465F4E
:10B634004552524F525F464F5242494444454E0090
:10B644004E52465F4552524F525F494E56414C4905
:10B65400445F41444452004E52465F4552524F5259
:10B664005F42555359004E52465F4552524F525F06
:10B67400434F4E4E5F434F554E54004E52465F4526
:10B6840052524F525F5245534F5552434553004E09
:10B6940052465F4552524F525F4D4F44554C455FA1
:10B6A4004E4F545F494E495449414C495A45440010
:10B6B4004E52465F4552524F525F4D555445585F66
:10B6C400494E49545F4641494C4544004E52465FF9
:10B6D4004552524F525F4D555445585F4C4F434B62
:10B6E4005F4641494C4544004E52465F4552524FD5
:10B6F400525F4D555445585F554E4C4F434B5F4632
:10B7040041494C4544004E52465F4552524F525FA8
:10B714004D555445585F434F4E445F494E49545F1D
:10B724004641494C4544004E52465F4552524F52A1
:10B734005F4D4F44554C455F414C52454144595F20
:10B74400494E495449414C495A4544004E52465F7A
:10B754004552524F525F53544F524147455F4655ED
:10B764004C4C004E52465F4552524F525F41504935
:10B774005F4E4F545F494D504C454D454E544544E2
:10B78400004E52465F4552524F525F464541545512
:10B7940052455F4E4F545F454E41424C4544004E26
:10B7A40052465F4552524F525F494F5F50454E4497
:10B7B400494E47004E52465F4552524F525F4452E3
:10B7C400565F5457495F4552525F4F564552525542
:10B7D4004E004E52465F4552524F525F4452565F9E
:10B7E4005457495F4552525F414E41434B004E52BC
:10B7F400465F4552524F525F4452565F5457495F19
:10B804004552525F444E41434B004E52465F4552AF
:10B81400524F525F424C455F495053505F52585FFC
:10B82400504B545F5452554E4341544544004E527C
:10B83400465F4552524F525F424C455F4950535008
:10B844005F4348414E4E454C5F414C52454144593B
:10B854005F455849535453004E52465F4552524F28
:10B86400525F424C455F495053505F4C494E4B5FC9
:10B87400444953434F4E4E4543544544004E52466B
:10B884005F4552524F525F424C455F495053505F9F
:10B89400504545525F52454A4543544544001112B0
:10B8A4001314636C6F636B00434C4F434B0047505E
:10B8B400494F54450050525300554152540055418C
:10B8C40052544500436F6E6E656374696F6E2077E2
:10B8D400697468206C696E6B2030782578206573F4
:10B8E4007461626C69736865642E00436F6E6E6583
:10B8F4006374696F6E2030782578206861732062E4
:10B9040065656E20646973636F6E6E6563746564E8
:10B914002E20526561736F6E3A2030782558006F7F
:10B924006E5F646973636F6E6E6563746564206CC7
:10B9340065617665005048592075706461746520AE
:10B94400726571756573742E004741545420436CBD
:10B9540069656E742054696D656F75742E00474176
:10B964005454205365727665722054696D656F7501
:10B97400742E005772697465206F70657261746902
:10B984006F6E00696E5F70696E5F68616E646C658E
:10B99400723B2070696E3D25642C20616374696F6D
:10B9A4006E3D256400000000204000206D506F773C
:10B9B400657200257320737461727465642E00725D
:10B9C40036A3AFCDFC67AD5B42C76CCD46DF2163C8
:10B9D4006D6420626C655F757569643D2530782CF3
:10B9E40020747970653D25780A00616C6572742055
:10B9F400626C655F757569643D2530782C207479B7
:10BA040070653D25780A00626C655F6D705F7365D3
:10BA140072766963655F6F6E5F626C655F6576748D
:10BA24003A206576656E743D2564005772697465C5
:10BA3400206F7065726174696F6E20706572666FD5
:10BA4400726D65642C20636861725F68616E646CFA
:10BA5400653D253078006F75725F6E6F7469666935
:10BA6400636174696F6E3A20636F6E6E48616E64D1
:10BA74006C653D2530782C206C656E3D25642C204A
:10BA840076616C75653D2530780074696D65723A30
:10BA94002073746F70206368617267696E672070C9
:10BAA4006F72743D25640066726565557362506FEC
:10BAB40072743A20676574436F6E6E48616E646C8D
